:020000040000fa
:080000000001040000000000f3
:020000040000fa
:04000800b40200003e
:020000040000fa
:04000c00ca02000024
:020000040000fa
:04001400e002000006
:020000040000fa
:04001800f6020000ec
:020000040000fa
:0400480010020000a2
:020000040000fa
:10020000af8c20000eff27000e01880000000000c8
:10021000000020000000e000020032000001200089
:1002200020028800140007000e0107000000e00013
:1002300003003a00a0032200010020000200370062
:100240000000200001002000810f7000010032003a
:1002500014000700000020000000e000020032004f
:1002600000000200000000002c1f0200000000003f
:100270000040da000000fe004440a90020042000f5
:100280000000e00003003200002020009001880000
:100290004440a800000006008a1f78008b1f7800e9
:1002a00000000600a1028800800478000000eb0036
:1002b0001f003700e284440054a0b4009905ba003e
:1002c000e284440054a0b4009906ba00e2844400d9
:1002d00054a0b4000006eb00476fde00fd07b2003b
:1002e000ae018800636ce10003003a00eaff0700fa
:1002f0000000eb000e003700606ce10008003a00df
:10030000004deb000a05e800020039003420ec0043
:100310000af0a0008b05e900f9ff3e000400370059
:100320006168e100010032000086eb000b0007006d
:1003300019c7ba001905ba000e04e00003003a001c
:100340000a00e000dbff3a0000000600fe07b200f2
:10035000ae0288008a047800f5ff37000cd0a300b5
:10036000e20f4d001c00390089027800354dba00bb
:100370000a05e800020039003420ec000af0a00071
:100380008b05e9000f003200254dba000a05e80090
:10039000020039003420ec000af0a0008b05e900cf
:1003a000080032000c00e0000600320015cdba0053
:1003b0000a05e800020039003420ec000af0a00031
:1003c0008b05e9008984e80054a0b4000b00e0002c
:1003d000e2ff3a00000006009902ba00055d7800cd
:1003e0008b05e900f7ff3200c82ade00055d7800c2
:1003f0008b05e900f3ff32000c00e000f1ff320052
:1004000019ddba00eeff37008a0d0400000000007d
:100410003c080400000000003a0404000000000052
:100420003600f800809fbe00829fbe00849fbe0001
:10043000869fbe003200f8003400f8001000200053
:10044000a001880000202000900188000200fa002e
:100450000040eb00004f7800360037001e80fb00a4
:100460006a00b900800078004080200000804000d1
:10047000100078000000e0002d0032001e81fb001b
:100480006a10b90000007800e600400040802000bb
:10049000008040001000be0061004000e080480085
:1004a0006a11b90082017800a28020000281410017
:1004b0000089be001e80fb006a00b90000007800c1
:1004c000e600400040802000008040001001be0097
:1004d0001e80fb006a00b900000078008080e80000
:1004e00040802000008040001000be00800f5100be
:1004f000818f59000e003a001e80fb006a00b9008f
:1005000080007800408020000080400010007800cb
:10051000000001001e80fb006a00b9008000780026
:10052000a0802000008140006000b8000089be006b
:100530001e4fe8001e407800e94f5000c7ff36000c
:100540008900a9000080fa003400f9003200f900a7
:100550004f03be004f02be004f01be004f00be0061
:100560003600f900004006003200f8003400f800c0
:10057000881f780018002000a801880008202000ab
:10058000980188004f0478000000fa008020a9003c
:10059000ffff37003200f8003400f800881f7800b1
:1005a00018002000a8018800082020009801880079
:1005b0004f0478000000fa008060a900ffff3700b8
:1005c0003200f8003400f800881f7800180020007e
:1005d000a801880008202000980188004f047800b6
:1005e0000000fa008040a900ffff37003200f80049
:1005f0003400f800881f780018002000a801880047
:1006000008202000980188004f0478000000fa00bc
:100610008080a900ffff37000a00fa0011002000c7
:10062000b1bf9f00c0bf9f006a8057003906070016
:100630004fb897000080fa00000006000600fa009c
:10064000000f780011079800220798001e00900004
:10065000ae009000160a07002e0090000080fa00fd
:1006600000000600000005000000fa006881570045
:10067000cfb8970040438000100078005d0207006b
:100680000080fa000000060081000700d900070082
:100690008a010700b20107000b010700d40207001e
:1006a0007f023700889fbe008a9fbe0080047800ca
:1006b0000200e0005b00320001407800814c7800cd
:1006c00082814400f1f99f00e20f5100550036008d
:1006d00091449800a1449800e1f99f00d1f99f004e
:1006e000e60f51004f003600b1449800c1f99f0059
:1006f000e80f51004b0036000905ea00630565006c
:100700000a8444000a055100c1ff2f00010565005d
:100710000080fb008000eb0012102000131020006e
:1007200032060700008cbe000a01440060b99f0039
:1007300071b99f00e80f55003a0036002004980078
:1007400031049800400498005104980020b99f009b
:1007500031b99f0040b99f0051b99f00f80f550073
:10076000300036006004980071049800000c980076
:10077000110c9800200c9800310c9800400c980047
:10078000510c980020b19f0031b19f0040b19f00f3
:1007900051b19f0060b19f0071b19f0000b99f00ef
:1007a00011b99f0064016400780141000204440013
:1007b000020555006011b8000203be000002be0031
:1007c0000403be006022b800000072008180720045
:1007d000020173008381730010003700009cbe008b
:1007e0000294be00400498005104980062049800ee
:1007f00073049800000c9800110c9800220c9800cb
:10080000330c9800400c9800510c9800620c980032
:10081000730c98000a02b1000802b000ff0f5500e7
:10082000eeff3e00090078004f05be004f04be00f9
:100830000000060041438000910078006105370008
:1008400041438000910078000e0507001100200050
:100850000000e00005003500404380009000780073
:10086000a000200057050700cf00de000100ea00cd
:100870000000060000000600e086200000000600e0
:10088000fdff070060438800504388000000060019
:10089000ec874700889fbe008a9fbe008c9fbe00e9
:1008a0008e1f780000067800010478001807900079
:1008b0002805900098067800cdb79f00b8059000f5
:1008c0003202be002203be000400be000601be00cc
:1008d0004f18de006011b8008000eb00d0b79f0019
:1008e000e1b79f00f2b79f0083bf9f0080047800ac
:1008f0000900e000060032006000b8006011b80096
:10090000040250008582580006035900878359006d
:100910000e00e000020035000d10a100cdb79f00d1
:100920000900e00005003a004fb097000028a3003e
:1009300002003a000038a300020032008a00e900f9
:10094000010037008a007800f8815700a2002000db
:1009500008007800860007000900e00003003a0064
:10096000cfb097000128a300080032000000e90082
:1009700000814500b1c2b3000900e000010032006f
:10098000d1c2b30001497800050037000138a30047
:10099000030032000000e90001c2b3008175780055
:1009a000480190000201e9000001510080804500eb
:1009b0004fb297008a0178000c00780057020700b8
:1009c0009c0090000188a300040032009800900071
:1009d000810f500001003d00010078004f077800b2
:1009e0004f06be004f05be004f04be00cf00b10051
:1009f000000006000200fa00889fbe008a9fbe0029
:100a00008005780001047800020078001801900049
:100a10002805900098007800b1bf9f00b8049000ae
:100a20000200e000020035000110a100b1bf9f00ec
:100a3000ea815700820020008a0078003002be0060
:100a40002003be0008007800490007003fb9970066
:100a5000f0006100030032000000e90001c3b300b0
:100a6000817478003fb99700e8006100030032000c
:100a70000000e90001c2b3008174780048019000d1
:100a80000201e90000015100808044003fba970054
:100a90008a0178000b007800200207009b0090007c
:100aa0000188a3000400320098009000810f5000dc
:100ab00001003d00010078004f05be004f04be005c
:100ac0000080fa0000000600ea874700889fbe0009
:100ad0008a9fbe008e1f7800000478000300780013
:100ae0007287570084e2260055c72600049fbe0087
:100af000c3962200030f78006c875700004feb006d
:100b000011059000a1049000910578000200e0001a
:100b10000200320002077800010037007287570098
:100b20000000e00002003a000e007800a604070072
:100b30000a00e000030035008a0f50000100360073
:100b40000a0078000b027800890178000001780023
:100b50008e00780008007800f00107004f07780049
:100b60004f05be004f04be00af00b10000000600fc
:100b7000f4874700889fbe008a9fbe008c9fbe00fe
:100b80008e1f78000605be000404be0081bf9f00d2
:100b900082b79f00f3b79f00b0009000e1b79f00bd
:100ba0001301780092b79f009006900040009000db
:100bb0000000e900000678000d00e00001003d00a3
:100bc0001d0020008040eb00efb19700817178009c
:100bd0001e0020001f0037000c06e9000fb0970030
:100be000cf80de006109b900a0b79f00b1b79f00b8
:100bf000c2b79f00d3b79f000203be000002be0031
:100c00000800be000a01be009e050700000778002c
:100c10000e4078000043b000efb0970080707e0077
:100c20008d06e9000fb997000201e90082bf9f001d
:100c30002fb29700bfb297004fb39700dfb3970072
:100c40000800be000a01be00870507000205be00bd
:100c50000004be000c00e0000d003400e00f540062
:100c6000e08f5c00e00f5d00e08f5d00daff3a008e
:100c70000d00e000d8ff3c008fb997000300e000b2
:100c8000030034001fb097000018a300d2ff3a0001
:100c90000e00e00002003a00ffb097001140a100f2
:100ca0000c0078004f0778004f06be004f05be00cd
:100cb0004f04be004f01b100000006000200fa0020
:100cc000889fbe008a9fbe0000057800010478005e
:100cd0000200780018019000a804900098007800a5
:100ce000b1bf9f00b80590000200e000020035008f
:100cf0000110a100b1bf9f00ea815700a2002000af
:100d0000890078003002be002003be000800780091
:100d100097ff0700480190000201e900000151001f
:100d2000808045003fba9700890178000a0078006a
:100d30007a0107009a0090000188a30004003200a5
:100d400098009000810f500001003d0001007800e4
:100d50004f05be004f04be000080fa0000000600f0
:100d6000fa874700889fbe008a9fbe008c9fbe0006
:100d70008e1f7800800478000104780082057800d6
:100d8000180190002805900018077800b80090001e
:100d90000200e000020035000e10a1000100370043
:100da0001200200070006700e0b79f0009003200c9
:100db0003b02be002b03be00e00f5200e08f5a0042
:100dc000e00f5b00e08f5b00020032008a86e900e2
:100dd000010037008a067800e8026700f5b79f0037
:100de000010032008d06e9003b02be002b03be006d
:100df000e4af9f00f5af9f0086b79f0097b79f00b5
:100e0000480690000c06e9000040eb0080707e0070
:100e1000efb297007fb297008903780081047800d1
:100e2000d8af9f00020478008bbf9f008a0578002e
:100e3000034578002a0037000c06e9006fab9700e5
:100e40006f006300e90f500002003c000003b00097
:100e5000010037007005b0000a03fb001604b10062
:100e6000f90f53000c003e00000378000650a0006c
:100e70001606b100f90f530007003e00b4b79f00fb
:100e8000a5b79f00c7b79f00f8030700cfb397002f
:100e9000afb297003fb2970080747e000804e9006b
:100ea0008d06e9006fa89700ffa897000fb1970083
:100eb0009fb19700460020008301d1000281d3003a
:100ec0008180d3000080d3000603e900faff3a00d6
:100ed000e0af9f00f1af9f0082b79f0093b79f00e4
:100ee000e10f56000f0034006fa89700ffa897008d
:100ef0000fb197009fb19700e00f5000e08f5800ae
:100f0000e00f5900e08f5900cbff3a000800e000e5
:100f1000c9ff3c000d00e000020034000e18a300e1
:100f2000c5ff3a0089007800f4b79f008704780075
:100f30005fac97008a4178000b0578008fbd970061
:100f40000500e000100032003b02be002b03be0093
:100f5000e4af9f00f5af9f0086b79f0097b79f0053
:100f6000e00f5200e08f5a00e00f5b00e08f5b0063
:100f7000050032000c06e90083707e000c06e900d3
:100f800000c3b30080707e00ffb297000500e00050
:100f9000030032000c06e90000c2b30080707e003e
:100fa000480190000201e9000c0151008c804000d2
:100fb0000e0278008a01780009007800d700070047
:100fc000990090000188a30004003200980090006e
:100fd000810f500001003d00010078004f077800ac
:100fe0004f06be004f05be004f04be00af01b1006a
:100ff000000006000200fa00881f78000004780054
:10100000e2bf9f0064815700080078008202070059
:10101000980090000148a300010032000080eb001e
:101020004f0478000080fa0000000600889fbe0090
:10103000000478004800900082047800808f5400fb
:101040000100360080047800090178005800900003
:101050003e0307005800900009004000500498002b
:10106000c800900089845000490498000048eb00b3
:101070004f04be0000000600100078006ffd37002e
:10108000900190000388a30001003200e7ff3700c1
:101090000348a30001003a00f7ff07000000060024
:1010a00084082000848f50001d0032000d003c0099
:1010b00014082000848f50002700320002003c00fa
:1010c000040820000400370024082000848f50000a
:1010d0003400320044082000848f500043003a005e
:1010e00036003700040a2000848f500027003200a9
:1010f00004003c0004092000848f50003b003a00ab
:1011000028003700020c2000828f50002f00320090
:10111000020f2000828f500034003a002b0037006d
:101120009380e9000200e0000500320081097800a8
:101130001102fb00cfa2de00612bb90028003700ae
:1011400081097800114278000482fb008002eb00e4
:101150006033b8002200370013027800e400520028
:101160000200e00005003200810978001102be0093
:101170004fabde0086037800190037008109780044
:101180001102be006033b800150037009380e900fb
:101190008109780011027800cfa2de00612bb9002e
:1011a0000f00370093027800e88052008109780030
:1011b0003102be002103be00090037009380e90020
:1011c0000200e00002003200f1ff37009380e900e6
:1011d00081097800110278008002eb006033b800ca
:1011e0000498be000690be00100005000000050037
:1011f00044082000848f50002500320008003c0085
:1012000014082000848f50001400320024082000ad
:10121000848f500024003200040820000c003700a6
:1012200004092000848f50001f00320004003c009d
:1012300084082000848f500024003a000e003700fc
:10124000040a2000848f500011003200040c20009a
:10125000848f50001d003a000d0037009380e90094
:10126000810978009100780001087800cf91de00b4
:101270008288be00140037009380e900810978005d
:101280009100780001087800824878000e0037004d
:101290009380e900810978009100780001087800c6
:1012a00082087800080037009380e90081097800ff
:1012b00091007800010878006112b900612bb90033
:1012c0008498be008690be00100005000000050056
:1012d000889fbe00000478004800900082047800d7
:1012e000808f5400010036008004780009017800e6
:1012f0005800900095020700580090000900400037
:1013000050049800c8009000898450004904980057
:101310000048eb004f04be0000000600f2874700c3
:10132000889fbe008a9fbe008c9fbe008e1f7800e3
:1013300080047800010578000204780083057800b5
:101340006107620002003a008b0f54000800390068
:10135000080178008a0078000900780048ff07003b
:101360008b0f540002003900880578001e003700fa
:10137000088655000c017800f00f56000100360079
:1013800002012000010220007e805700c5fc0700fa
:101390008c0678000500370002012000fe8057000f
:1013a0000900780036ff0700f0865600ef8f5600e0
:1013b000f9ff3e004461de0000ff2f000091b900fc
:1013c00002014600fe805700090078002cff07004c
:1013d0000e00e00004003a00080178008a0078005e
:1013e0000900780026ff07000b0078004f077800ff
:1013f0004f06be004f05be004f04be002f01b100d6
:1014000000000600000005000000050000000500c7
:10141000000178000040eb008080fb0081804000ec
:10142000238b200063c278000404e00003003a002c
:10143000308b200060c07800000006009201780028
:10144000934f520004003a00308b200060c07800b7
:101450000309e800010037000040e800ea4f5000af
:10146000edff360000000600f6874700889fbe00ab
:101470008a9fbe008c9fbe008e1f780000057800fa
:101480000104780083057800040678000000eb0072
:10149000c0b79f008080eb00d1b79f00e0b79f00ee
:1014a000f2b79f000008200080bf9f0098007800de
:1014b000010078008004eb00010037008904e80097
:1014c000304178000204e0000300320053c2b30050
:1014d000834f5100f9ff3a000900e0000400320098
:1014e000090178000a007800e5fe0700188c440026
:1014f0001807780050c2b3009e4f10003f013a0019
:101500000e07e8000e0c780010003700cfb09700ef
:101510000100a0000b003700cfb097000110a00021
:1015200008003700cfb097000120a0000500370069
:10153000cfb097000130a00002003700cfb0970075
:101540000140a000c1b79f00000ce800180078001f
:1015500090407800b2c2b30082cf5000f1ff320059
:1015600007003c0002c2b30082cf5000f0ff3200ff
:1015700032c2b30082cf500007003a00efff3700bd
:10158000d2c2b30082cf5000e0ff320002c3b300ea
:1015900082cf5000e0ff3200a2c2b30082cf5000e1
:1015a0000d003a00000ce8001c80e900000e7800f5
:1015b00010007800e0b79f000000e0000f003d0041
:1015c000cfb097000100a200c1b79f000000ea0061
:1015d000e0b79f000900370084010700e0b79f00d3
:1015e00001003700000ce800180078009000fb00b4
:1015f0000103b100e98f5000faff36004fb09700a9
:101600000008a300020032000010a100c0b79f0034
:1016100018007800e1c2b30090cf100016003a0025
:101620008000eb00d1b79f000000e800000c7800bc
:10163000a1c2b30090cf100006003a00000ce800f1
:101640001c80e900000e780010007800d0b79f00e1
:101650000900370065010700d0b79f00010037007f
:10166000000ce800180078009000fb000103b100b6
:10167000e98f5000faff36000800780064ff070089
:1016800080467800180078001000fb00f001070089
:1016900091062000810f50003800320012003c00fb
:1016a00041062000810f5000340032000a003c0047
:1016b00011062000810f500020003200310620006a
:1016c000810f5000a000320051022000810f500015
:1016d000bc003a00b400370071062000810f5000b2
:1016e000b8003c008800370001072000810f50003f
:1016f0005c00320007003c00e1062000810f500032
:101700007a003200f1062000810f5000ad003a004f
:101710003900370051072000810f500027003200a8
:1017200081072000810f5000420032003107200065
:10173000810f5000a3003a008f0037008d80fb001e
:101740000c01780000fe2f000f004000d2010700be
:101750000000e000a800320018007800000ce8004b
:101760009041780002fe2f000f014100f8805700e1
:101770000a00780024ff07000e0037008d80fb0070
:101780008c0178001200200000fe2f000f004000a6
:1017900043fe07000000e00097003200180ce8004c
:1017a00002fe2f000f014100f88057000a00780068
:1017b00037fc070080844400900037008d80fb00d8
:1017c0008c0178000001eb0000fe2f000f004000ac
:1017d00033fe07000000e00087003200180ce8002c
:1017e00002fe2f000f014100f88057000a00780028
:1017f00032fd0700efff37008d80fb008c01780081
:101800000001eb0000fe2f000f00400024fe070047
:101810000000e00078003200180ce80002fe2f0003
:101820000f014100f88057000a00780071fc0700a2
:10183000e0ff37008d80fb008c0178000001eb0099
:1018400000fe2f000f00400015fe07000000e00022
:101850006900320018007800000ce8009041780020
:101860001c0037008c0178000001eb00010f200004
:1018700000fe2f000f00400009fe07000000e000fe
:101880005d003200180ce8000fb097009fb0970081
:101890002fb19700bfb19700e00f5000e08f5800c4
:1018a000e00f5900e08f590009003a00cfb59700ca
:1018b0006fb49700a08a2000430107000b02780054
:1018c0008801780000017800a18a200047003700d5
:1018d00083c7b30002fe2f000f014100f8805700bc
:1018e0000a0078001efd0700b2ff37000b8144009c
:1018f0008d80fb008c01780000fe2f000f0040005f
:101900003bfe07003c0037008d80fb000c01780097
:1019100000fe2f000f0040005f0107000000e00004
:101920003500320018007800000ce8009041780083
:1019300002fe2f000f014100f88057000a007800d6
:10194000b1fe07009bff370000c8b30080cf5600f0
:1019500029003a00180ce8001c80e900000e78000d
:1019600010407800e0df9f0013002000e2fd2f0010
:101970000f0141000800370000c8b30080cf5600b7
:101980001d003a00180ce8001c80e900000e7800e9
:101990008001eb0010017800f88057000a00780001
:1019a00049fc070083ff370000c8b30080cf560012
:1019b00011003a00180ce8004fb29700efb1970001
:1019c000080037000e0c78000000eb00c0b79f0045
:1019d000e0b79f000080eb00d0b79f000002eb0053
:1019e0008401780012002000018b20000a0078009a
:1019f0004afe07006fff3700180ce8000900780066
:101a00004f0778004f06be004f05be004f04be00d2
:101a10006f01b100000006008200fa00889fbe003e
:101a20008a1f78000005780082047800c13f9f007b
:101a30000004eb00100037000902780088017800ec
:101a4000a2f72f000f01410081f72f008f80400087
:101a50000a00780084fe070008004000880f50004c
:101a600004003d00b0042000404688000084eb00e4
:101a700004003700000478004f3897001004e0009d
:101a8000edff3a00080078004f0578004f04be00d3
:101a90000080fa0000000600889fbe000004be001f
:101aa0000000eb000800e000180032001800900071
:101ab0000058a3000d003200d8009000680090008c
:101ac000808f500009003600b80990000001eb003b
:101ad000820078000800780003000100d800900020
:101ae0000080eb000100e000080032000000eb0085
:101af000200c980060049800500498000900e00051
:101b00000200320018007800c3fa07004f04be003c
:101b100000000600889fbe000004be000000eb002d
:101b20000800e00025003200180090000058a300d3
:101b300011003200d800900068009000808f5000a3
:101b400009003600b80990000001eb00820078001f
:101b50000800780003000100d80090000080eb002e
:101b60000100e000150032000000eb00200c98009e
:101b70006004980050049800780a900008109000c3
:101b8000800f5200060031000002520011002000b8
:101b9000cfa2de00612bb9001800780065000700b5
:101ba0000000eb0000149800700c98000900e000a1
:101bb000020032001800780097fa07004f04be00b8
:101bc00000000600800078001000200002022000c3
:101bd000828f500004003200e9805000e48f5000f2
:101be000010036000000eb0000000600889fbe00e8
:101bf0008a1f7800000578000a047800984478006d
:101c00000805e8000900fb00eeff07000000e00007
:101c1000f9ff3a00b0c2b30080cf54000500320093
:101c2000d0c2b3008000eb0080cf540005003a0022
:101c3000020037008000eb00010037001100200097
:101c40000804e8000000eb00030037006a02b90056
:101c5000020052000003b0003801fb0003fd2f001a
:101c600082814100e98f5100f8ff36000100e00059
:101c700001003a000000ea004f0578004f04be0062
:101c800000000600889fbe008a1f7800800478004c
:101c900001057800090078004b0007000004780077
:101ca0008a017800080178001100200009007800fe
:101cb0000a000700800078000080eb00888f500049
:101cc00001003a000000eb004f0578004f04be0011
:101cd000000006001000780058fa3700889fbe0008
:101ce0008a9fbe00810478000204780009c5b9000b
:101cf0000900e00001003a000004eb000a0178004e
:101d00008000780003007800dbfc0700800078008a
:101d10008a8f500003003200110009008980d8002a
:101d200000047800080078004f05be004f04be0094
:101d300000000600a0fd2f00f1ff2f003a00070071
:101d40004f89de00820178000000060080017800e3
:101d500002003700b15978000201e9000200e000fa
:101d6000fcff3a00000006000200fa008101780042
:101d7000e0ff9f00930090000188a300050032005f
:101d8000d3009000805878000080fb00d1019800bb
:101d90000a003700120020008f80e900030078005d
:101da000b5fc0700800078000080eb000100e00037
:101db00002003200eff897000180fb000080fa007b
:101dc00000000600e8ff37008000780004003700bc
:101dd0003104e00002003a0000005100000006005b
:101de000010178000108a300f9ff3a0081017800a1
:101df00031017800f4ef2f00020242000281ea0074
:101e0000020162000408280004016100f7ff3200ab
:101e100083007800010178003104e000fdff3a0002
:101e2000000051000000060002002f00f3ff2f0009
:101e3000820f5000838f5800040036000000ea0033
:101e4000404688000080eb008080eb000000060028
:101e5000f1fb2f0080804000f98f500001003e0010
:101e60000050a00000000600f9ff3700f1f92f0034
:101e700080804000f98f500001003e00f005b20064
:101e800000000600f9ff3700000006007cfa07009a
:101e9000fdff0700fcff3700881f78000004780072
:101ea00000082000808f5000170035001008200027
:101eb000808f50000b00340030082000808f5000cd
:101ec00011003a0092007800688050000009780004
:101ed0003002be002003be00049cbe000694be007b
:101ee00007003700920278006480520000097800f1
:101ef0001000be0009000700009cbe000294be0056
:101f000010002000010037000000eb004f047800b3
:101f10000000060000c0da0000000600810378001f
:101f20001d0007000001be006000b8000478a30097
:101f300013003a006220e10015003e000d00390058
:101f40008301d1000281d3008180d3008301d100bd
:101f50000281d3008180d3008301d1000281d300ac
:101f60008180d3000538b000c42add00f300b20040
:101f70008381720007f0a70003f0a00000000600b4
:101f800083ff2700020020006110b900f9ff37002d
:101f900003ff2700f7ff3700c70ade00f107b20092
:101fa000f50fb20008003200e1cf4200020032001b
:101fb0000170a00024000500810f700001003200b4
:101fc0000408050044000500810f700002003a007b
:101fd000140005008502e9000000400081c04800af
:101fe000fcff3b000170a00024000500020ab900bc
:101ff000001bb9000200b8008100420081004300cc
:1020000000000600889fbe008a9fbe003004420088
:10201000b0844a0030054b0090854b006000b10051
:102020000898be000a90be000440e10005c8e10027
:1020300006d0e10007d8e10002003100680040004e
:102040001008e8004f05be004f04be000000060067
:10205000889fbe008a9fbe003004be002005be00df
:102060000418540005985c0006185d0007985d0090
:10207000110020000440e10005c8e10006d0e100a5
:1020800007d8e100010039008000eb001088100043
:102090004f05be004f04be00000006001200fa000b
:1020a000889fbe008a9fbe008c9fbe00e0b79f0045
:1020b000f1b79f0082bf9f0093bf9f000605be003f
:1020c0000404be000000eb00d0b79f00c0b79f0023
:1020d000b0b79f00a0b79f0090b79f0000067800a0
:1020e0005fb19700cfb09700820141003fb09700e9
:1020f0000200e00004003d00370007007e8057002a
:10210000c0ff070003003700330007007e80570040
:10211000cfff0700dfb697000d00e0000c00350090
:102120006fb29700ffb297000fbb97009fbb97005d
:1021300010002000010020006011b80000027200b1
:102140008182720002037300838373001b00070007
:102150000c06e80001042000810f5600e0ff3a0061
:102160000d00e00004003d000802be000a03be00ae
:102170007e805700a3ff07005fa897000000e000e3
:1021800005003a001fb29700afb297003fb3970027
:10219000cfb39700090007006fb09700ffb097001a
:1021a0000fb997009fb997004f06be004f05be00bc
:1021b0004f04be000080fa00000006000100070086
:1021c00000000600a4b79f00b5b79f00c6b79f00e8
:1021d000d7b79f00000006004f09de008281710022
:1021e000b3b79f004f01de00818040008280700005
:1021f000a1b79f008fb097004f09de00000040009c
:102200000200700090b79f007fa897004f01de008a
:10221000818040008280700081b79f000d00070020
:102220004f3ade000000400004007000f0af9f0055
:10223000080007000402420085824a0006034b00a2
:1022400087834b00dfff07000802be000a03be00c1
:10225000000006002fb29700bfb297004fb397005f
:10226000dfb3970000000600881f780018002000e8
:10227000881f780089ff07008f87e9004f047800e6
:1022800000000600801feb0084ff07008f87e90035
:1022900000000600889fbe008a9fbe00e00f50002d
:1022a000e08f5800e00f5900e08f59000c003d000e
:1022b0006044b8006055b8000000540081805c00a4
:1022c00002015d0083815d001800200015000700f9
:1022d00008003d00180007000004eb00050037006f
:1022e0000004eb000f00070002003d001200070091
:1022f00018002000dcff07000800e00006003200a4
:102300006022b8006033b8000000520081805a009b
:1023100002015b0083815b004f05be004f04be00dd
:1023200000000600e00f5200e08f5a00e00f5b0053
:10233000e08f5b00000006006044b8006055b80004
:102340000402540085825c0006035d0087835d0003
:1023500000000600889fbe008a9fbe008c1f780088
:10236000e00f5000e08f5800e00f5900e08f590057
:102370000d003d006044b8006055b80000005400f6
:1023800081805c0002015d0083815d001c002000f3
:102390000820e10009a8e1000ab0e1000bb8e10063
:1023a0000d003d00080037000006eb00e00f520072
:1023b000e08f5a00e00f5b00e08f5b0006003d00fd
:1023c0006044b8006055b8000402540085825c0087
:1023d00006035d0087835d00aaff07000c00e00094
:1023e000060032006022b8006033b80000005200de
:1023f00081805a0002015b0083815b004f067800f8
:0c2400004f05be004f04be0000000600a7
:020000040000fa
:10240c005374000061720000746900006e67000074
:10241c0020530000504900002e2e00002e0d00000d
:10242c00004c0000445200003a20000030780000bc
:10243c0025300000345800000d0a0000434e000007
:10244c00543a0000203000007825000030340000a1
:10245c00580d00000a000000d1dd0000d2dd0000a4
:10246c00a1aa0000a2aa0000a4aa00000003000078
:10247c000306000001040000060200000500000035
:04248c000305000044
:020000040000fa
:102490001200fa00000f9800e3004700c223290051
:1024a0000b000900b258780010c3b3000000fb0015
:1024b0004400dd008040780050c3b3006f406000ee
:1024c00000c07000804078000e08900071409800b5
:1024d00020c3b3000000fb004400dd008040780012
:1024e00030c3b3006f40600000c0700080407800cf
:1024f0000e0890006140980010c3b3000000fb007c
:102500004400dd008040780030c3b3006f406000bd
:1025100000c07000804078000e0890005140980084
:1025200000c2b3000000fb004400dd0080407800e2
:1025300030c3b3006f40600000c07000804078007e
:102540000e0890003140980020c3b3000000fb004b
:102550004400dd008040780050c3b3006f4060004d
:1025600000c07000804078000e0890001140980074
:10257000f0c4b3000000fb00a1042000810f500054
:102580001e003200a1042000810f50000a003c0010
:1025900041042000810f50006100320061042000de
:1025a000810f50003200320011042000810f5000d2
:1025b000420032005d003700e1042000810f50002e
:1025c00054003200e1042000810f500004003c0060
:1025d000d1042000810f5000280032005300370042
:1025e000f1042000810f5000470032003105200027
:1025f000810f5000410032004c00370030c6b3005c
:102600000000fb0011062000810f50000400320082
:1026100051072000810f50000400320043003700b2
:1026200010c0b300104798001000370040c7b30037
:102630000000fb00c1062000810f5000070032009f
:10264000e1062000810f5000010032000600370033
:1026500060c0b300104798000300370070c0b3009b
:102660001047980000000000000000002f00370015
:1026700020c0b300104798002c00370040c7b300bb
:102680000000fb0021072000810f500004003200f1
:1026900091072000810f5000040032002300370012
:1026a00030c0b300104798000300370050c0b3009b
:1026b00010479800000000001c00370030c6b3002f
:1026c0000000fb0001072000810f500004003200d1
:1026d00051072000810f5000040032001300370022
:1026e00040c0b300104798000300370080c0b3001b
:1026f00010479800000000000c00370090c0b300a5
:10270000104798000900370000c1b3001047980037
:102710000600370010c1b3001047980003003700cf
:1027200020c1b30010479800000000000e08900080
:102730009e4090002140980060c0b300004f780098
:102740000e089000104090000080fb004400de0066
:10275000004078006a00b9000000780080407800ee
:102760000e089000104090006f40600000c04000d4
:10277000204798002e4090000080fb004200de00c1
:10278000804078002e40900000c040001e4f400066
:102790002e409000634060000004e00004003a0016
:1027a0001e409000e24f500001003e001e4fe90025
:1027b0001e4090000080fb000000e9000000470080
:1027c000304090001e4f40000e08900030409000b6
:1027d0000080fb004400de00004078006a00b90081
:1027e00000007800804078000e0890003040900093
:1027f0006f40600000c040001e4f40009e80fb0004
:102800007000200000017800110009008280d800cb
:102810008000fd00004f78000e0890009e40780078
:10282000414098000e089000104078000004a2007b
:102830000004e000230032000e08900010409000d9
:10284000f90007008e089000904098000e08900054
:1028500020409000f40007008e089000a0409800ef
:102860000e08900030409000ef0007008e089000a6
:10287000b04098000e08900040409000ea00070029
:102880008e089000c04098000e08900050409000c4
:10289000e50007008e089000d04098000e089000d8
:1028a00060409000e00007008e089000e040980033
:1028b0000e08900070409000db0007008e0890002a
:1028c000f04098000080fa00000006000200fa00c4
:1028d000881f7800000f780022002000600420008c
:1028e000710520000310200080497800814978009c
:1028f00082497800cc21ef00871f7800881f78007c
:102900000500fc0057052000373b8800a80a20007e
:10291000383b8800cd61a9004f047800cf037800d0
:102920001e007800104078000004e0002200320011
:102930001e007800104090000080fb004800dd0081
:10294000800078001e007800204090000080fb008e
:1029500001007000100f88001e00780030409000c9
:102960000080fb00c800dd001e00780040409000a1
:102970000080fb0001007000000f88001e0078003e
:10298000504090000080fb00c800dd001e00780071
:10299000604090000080fb0001007000f00e880095
:1029a0001e007800704090000080fb004800dd00b1
:1029b000e00e8800270037001e00780010409000cd
:1029c000840007000080fb004804dd001e00780042
:1029d000204090007f0007000080fb00080070008e
:1029e000100f88001e00780030409000790007002a
:1029f0000080fb004804dd001e007800404090008d
:102a0000740007000080fb0008007000000f8800c1
:102a10001e007800504090006e0007000080fb0010
:102a20004804dd001e007800604090006900070047
:102a30000080fb0008007000f00e88001e00780087
:102a400070409000630007000080fb004800dd003c
:102a5000e00e880010002800600e88004f04780007
:102a60000080fa00000006000400fa001007980039
:102a7000d861a80000000000c00e8000680060005f
:102a80000000e000fcff3200910f8000010f780091
:102a90001e007800804078001e00900021409800c1
:102aa0001e0078004800de00804078001e00900084
:102ab00011409800810f8000010f78001e007800ff
:102ac000804078001e009000414098001e00780071
:102ad0004800de00804078001e00900031409800e1
:102ae000710f8000010f78001e0078008040780090
:102af0001e009000614098001e0078004800de0033
:102b0000804078001e00900051409800610f8000c6
:102b1000010f78001e0078004800de008040780039
:102b20001e009000714098001e0090001040780038
:102b30000004a2000004e000230032001e00900008
:102b400010409000380007009e00900090409800d0
:102b50001e00900020409000330007009e0090006f
:102b6000a04098001e009000304090002e0007000a
:102b70009e009000b04098001e00900040409000e1
:102b8000290007009e009000c04098001e009000a1
:102b900050409000240007009e009000d040980014
:102ba0001e009000604090001f0007009e009000f3
:102bb000e04098001e009000704090001a0007004e
:102bc0009e009000f0409800d861a9000080fa00b3
:102bd000000006000200fa00004f78009e80fb0013
:102be000d0cc2c000008b8004308de00004078007c
:102bf0000080fb004400dd00804178001e81fb0066
:102c0000d0cc2c000010b8004308de006a00b900e8
:102c100000007800000051000040780000c0710002
:102c20000080fa00000006000200fa00004f780061
:102c30001e80fb004400de00004078006a00b900fe
:102c400000007800804078001e4178006f406100ed
:102c500000c040000080fa00000006000200fa00f8
:102c6000000f78001e00780018ff07000080fa00af
:102c7000000006000200fa00000f78001e00780035
:102c800079ff07000080fa00000006000800fa0043
:102c9000889fbe008a9fbe008c9fbe0041098000b5
:102ca000f07f2e000080600040098800410980000c
:102cb00000302000010070004009880041098000b8
:102cc000f0f32f00008060004009880028a1a900cf
:102cd0002881a9002841a90000202000900988002f
:102ce00031e1a90031c1a8003181a8003141a8001b
:102cf0003121a80031a1a8003101a900810980007b
:102d0000f0f92f000080600080098800a109800090
:102d1000f0ff230000806000a0098800a109800066
:102d2000000c200001007000a0098800a1098000ab
:102d3000c003200001007000a0098800a0098000e5
:102d40003000b300a00988002a61ef0010002000c5
:102d5000700988002de1a8002dc1a8002d81a800d0
:102d60002da1a90061098000006020000100700011
:102d7000600988002d01a80029e1a800008823002f
:102d8000110020008c0107000088230011002000a2
:102d9000890107003203200001002800010f78009c
:102da0004100200011079800a00180009e019000c2
:102db0009e007800a301880082087800a0018800a6
:102dc00050032000010020007b01070022032000a7
:102dd00001002800210798004100200031079800d9
:102de000a0018000be019000ae009000a301880009
:102df00082087800a0018800500320000100200014
:102e00006d010700820320000c0028004d00200007
:102e1000a00180008d0178008c007800a30188005b
:102e200082087800a00188005003200001002000e3
:102e300061010700c20020000a0028004b002000aa
:102e4000a00180008b0178008a007800a30188002f
:102e500082087800a00188005003200001002000b3
:102e600055010700620020000800280049002000ea
:102e7000a00180008901780088007800a301880003
:102e800082087800a0018800500320000100200083
:102e9000490107007800070010c0b3004f06be00cc
:102ea0004f05be004f04be000080fa00000006007f
:102eb0000400fa00000f7800110798000a0037009c
:102ec0001e007800104078000000fb000000e000c9
:102ed000110032001e007800104078001e0fe8003c
:102ee00010000700000000001e00900000f0a70086
:102ef0000000ea000000ea004f00de000040780019
:102f00009e0090008100e900110798000004e00095
:102f1000ebff3a0001003700000000000080fa00db
:102f2000000006000200fa00889fbe00004f7800f3
:102f30001e00fb00ea0f50000b003200ea0f5000a9
:102f400003003c00e80f50000e0032001400370070
:102f5000ec0f500010003200ed0f500010003a004e
:102f6000640007004100370000c8bf000004e00013
:102f700002003a00050107003c003700f800070096
:102f80003a0037007c00070000c2b300e5ff0700ed
:102f9000790007003500370037000700330037009d
:102fa00001c8bf00f04f500020003a000168ef0058
:102fb00000c8bf000004e0000f003a00020c20002f
:102fc0000400280045002000a00180008501780051
:102fd00084007800a301880082087800a00188009e
:102fe0005003200001002000f300070010c0b300d0
:102ff00000e8b7000d003700040820000200280098
:1030000043002000a0018000830278008200780045
:10301000a501880084087800a001880050032000e2
:1030200001002000e40007000068ef001e01fb0023
:103030002800280049002000a001800089017800b4
:1030400088007800a301880082087800a001880029
:103050005003200001002000d700070001c8bf0076
:103060000040e80001e8b700000000004f04be0087
:103070000080fa00000006000000fa00889fbe00f1
:10308000130020000000280041002000a201800061
:103090000102780000007800a4018800030878008d
:1030a000a2018800a088200001002000c2000700c3
:1030b000220020000800280049002000a001800014
:1030c0008901780088007800a301880082087800d0
:1030d000a0018800a088200001002000b6000700a1
:1030e0000068ef000168ef004f04be000080fa00a6
:1030f000000006000000fa0004802000144278005e
:103100000404e0000d003a0004082000020028003a
:1031100043002000a0018000830278008200780034
:10312000a501880084087800a001880050032000d1
:1031300001002000a00007000c003700030c200055
:103140000000280041002000a20180000102780058
:1031500000007800a401880003087800a20188001c
:103160005003200001002000930007000168ef00d9
:103170000080fa00000006000200fa00168020001d
:10318000164378000604e00028003a0000c8bf009b
:103190000004e0000f003a00020c200004002800a8
:1031a00045002000a001800085017800840078009f
:1031b000a301880082087800a00188005003200045
:1031c000010020007c00070010c0b30000e8b70039
:1031d0000d003700040820000200280043002000f2
:1031e000a00180008302780082007800a501880099
:1031f00084087800a001880050032000010020000e
:103200006d0007000068ef000040eb00004f780001
:1032100002003700190007001e4fe8001e4078002a
:10322000ee4f5000fbff36001200370012802000e6
:10323000124178000241e9008241780011802000ab
:10324000834878000301200000002800410020008e
:10325000a20180000102780000007800a40188002b
:1032600003087800a201880050032000010020001c
:10327000510007000080fa00000006000000fa007c
:10328000889fbe008a9fbe004301200000002800e6
:1032900041002000a20180000102780000007800b7
:1032a000a401880003087800a201880050032000d0
:1032b000010020004000070001c8bf000040e800f6
:1032c00001e8b70001c8bf00f04f500020003a00ed
:1032d0000168ef0000c8bf000004e0000f003a00e2
:1032e000020c20000a0028004b002000a0018000f2
:1032f0008b0178008a007800a3018800820878009a
:10330000a001880050032000010020002a000700cf
:1033100010c0b30000e8b7000d003700020820001d
:103320000800280049002000a001800089017800e1
:1033300088007800a301880082087800a001880036
:1033400050032000010020001b0007000068ef0070
:103350004f05be004f04be000080fa0000000600ca
:103360000200fa000040eb00004f78000200370036
:1033700081ff07001e4fe8001e407800ef4f50000d
:10338000fbff36000080fa00000006000200fa0091
:103390000040eb00004f780002003700b7ff070045
:1033a0001e4fe8001e407800ef4f5000fbff360034
:1033b0000080fa00000006000400fa00008fbe0042
:1033c00005003700000000000081eb008081eb0069
:1033d0001e0f41005e9749001e00be00e00f500026
:1033e000e08f5800f7ff3a000080fa000000060066
:1033f0000200fa00004f78001e4078000004e00050
:103400000d003200f20020000400280045002000da
:10341000a00180008501780084007800a301880065
:1034200082087800a00188005003200001002000dd
:10343000e1ff07000c003700c40020000200280054
:1034400043002000a0018000830278008200780001
:10345000a501880084087800a0018800500320009e
:1034600001002000d4ff07000080fa0000000600e1
:103470000200fa00000f78001e007800e40f5000f0
:1034800018003200e40f500007003e00e20f500029
:1034900010003200e20f500010003e00e10f50001b
:1034a0000a00320019003700e60f50001100320008
:1034b000e60f50000d003900e70f50000f003200fa
:1034c000e80f50000f003200100037006606a80019
:1034d0000e0037006626a8000c0037006646a800dc
:1034e0000a0037006666a800080037006686a80054
:1034f0000600370066a6a8000400370066c6a800cc
:103500000200370066e6a800000000000080fa0014
:10351000000006000200fa00000f78001e0078008c
:10352000e40f500018003200e40f500007003e0086
:10353000e20f500010003200e20f500010003e0079
:10354000e10f50000a00320019003700e60f50006a
:1035500011003200e60f50000d003900e70f500057
:103560000f003200e80f50000f003200100037004b
:103570006606a9000e0037006626a9000c00370079
:103580006646a9000a0037006666a90008003700f1
:103590006686a9000600370066a6a9000400370069
:1035a00066c6a9000200370066e6a9000000000018
:1035b0000080fa00000006000200fa00000f780008
:1035c0001e007800e40f500038003200e40f500075
:1035d00007003e00e20f50001a003200e20f5000d8
:1035e00025003e00e10f50000a0032007000370055
:1035f000e60f500047003200e60f50003800390057
:10360000e70f500050003200e80f50005b0032001e
:103610006700370030338000004078006140600070
:103620000004a200614060000080fb0061006000b7
:10363000313380000100a1000100700030338800a8
:103640005b003700303380000000d1006140600033
:103650000004a200614060000080fb006100600087
:1036600000004000313380000110a1000100700013
:10367000303388004e003700303380004200de00d7
:10368000614060000004a200614060000080fb0017
:10369000610060004200dd00313380000120a100a4
:1036a0000100700030338800410037003033800063
:1036b0004300de00614060000004a2006140600041
:1036c0000080fb00610060004300dd0031338000ba
:1036d0000130a10001007000303388003400370051
:1036e000303380004400de00614060000004a2002e
:1036f000614060000080fb00610060004400dd006c
:10370000313380000140a100010070003033880097
:1037100027003700303380004500de006140600044
:103720000004a200614060000080fb0061006000b6
:103730004500dd00313380000150a1000100700020
:10374000303388001a003700303380004600de0036
:10375000614060000004a200614060000080fb0046
:10376000610060004600dd00313380000160a1008f
:1037700001007000303388000d00370030338000c6
:103780004700de00614060000004a200614060006c
:103790000080fb00610060004700dd0031338000e5
:1037a0000170a100010070003033880000000000ab
:1037b0000080fa00000006000200fa00000f780006
:1037c0001e007800e40f50002a003200e40f500081
:1037d00007003e00e20f500016003200e20f5000da
:1037e0001c003e00e10f50000a0032004c00370080
:1037f000e60f50002f003200e60f50002500390080
:10380000e70f500034003200e80f50003b00320058
:1038100043003700303380006100600000f0a700f3
:103820000000ea000000ea004f00de0000407800df
:103830003c003700303380006200600000f0a700d9
:103840000000ea000000ea004f00de0000407800bf
:1038500034003700303380006400600000f0a700bf
:103860000000ea000000ea004f00de00004078009f
:103870002c003700303380006800600000f0a700a3
:103880000000ea000000ea004f00de00004078007f
:1038900024003700303380007000600000f0a70083
:1038a0000000ea000000ea004f00de00004078005f
:1038b0001c003700313380000002200000806000cf
:1038c00000f0a7000000ea000000ea004f00de0060
:1038d00000407800130037003133800000042000de
:1038e0000080600000f0a7000000ea000000ea008d
:1038f0004f00de00004078000a00370031338000be
:10390000000820000080600000f0a7000000ea002e
:103910000000ea004f00de000040780001003700a0
:103920000040eb000080fa00000006000200fa00f0
:10393000000f78001e007800e40f500018003200dd
:10394000e40f500007003e00e20f5000100032006c
:10395000e20f500010003e00e10f50000a0032005c
:1039600019003700e60f500011003200e60f50003a
:103970000d003900e70f50000f003200e80f500033
:103980000f003200100037006206a9000e00370059
:103990006226a9000c0037006246a9000a00370021
:1039a0006266a900080037006286a9000600370099
:1039b00062a6a9000400370062c6a9000200370011
:1039c00062e6a900000000000080fa000000060086
:1039d0000400fa00100798001e009000e40f500049
:1039e00004003200e50f50000400320000c0eb007c
:1039f0001000370000000000010037000000000048
:103a00001e0090000d000700d1cc2c000100b80072
:103a10004308de00004f780040c6b3009e407800a7
:103a200080cf50000200360040c6b300004f78003f
:103a30001e4078000080fa00000006000400fa0032
:103a4000100798001e009000e40f500004003200a0
:103a5000e50f5000040032000080eb001f0037002b
:103a60000000000001003700000000009e009000f0
:103a7000613a88004627a8000000eb00000f78009c
:103a800002003700000000001e0fe800703e20001a
:103a90009e007800808f5000faff36004627a9006c
:103aa0000000eb00000f780002003700000000006b
:103ab0001e0fe800703e20009e007800808f5000ae
:103ac000faff360000000000303a8000610060001c
:103ad0000000e000fcff3200903880000080fa0017
:103ae000000006000200fa00000f78001e007800b7
:103af000e40f500003003200e50f500004003a00cc
:103b00007ea6a8007e86a80010c0b3000100370082
:103b10000040eb000080fa00000006000200fa00fe
:103b2000000f78001e0078000000e0001a003a0044
:103b3000413a8000f0ff230000806000403a880096
:103b400000c0eb004ae7b700313a8000f0f02f00e8
:103b500000806000303a8800513a8000f00f2e005b
:103b60000080600000c0a000503a8800313a800018
:103b7000f0cf2f0000806000303a8800413a80008a
:103b800030f82f0000806000403a880047e7a80026
:103b900010c0b300010037000040eb000080fa00c5
:103ba000000006000400fa00100798000040eb0037
:103bb000004f7800110037001e80fb006a00b9003a
:103bc0008000780040802000008040009000780055
:103bd0001e009000808f500007003a001e80fb00fe
:103be0006a00b9008000780040802000008040001a
:103bf0008000eb00010878001e4fe8001e407800ae
:103c0000e94f5000ecff36000080fa00000006008b
:103c10000800fa0010079800220798003307980060
:103c200002c8bf000004a2000004e000020032004d
:103c30000040eb00280037000040eb00004f780008
:103c4000210037001e80fb006a00b9008000780068
:103c50004080200000804000100078000000e0005c
:103c600018003a001e80fb006a00b900800078004e
:103c700040802000008040009e00900001087800f5
:103c80001e80fb006a00b900800078006080200080
:103c9000008040002e019000be0190000288be000e
:103ca0001e80fb006a00b90080007800a080200020
:103cb000008140006000b8000089be0010c0b30061
:103cc000050037001e4fe8001e407800e94f500005
:103cd000dcff36000040eb000080fa000000060028
:103ce0000200fa00000f78001e0078000000e000db
:103cf00003003200e10f50001500320018003700b9
:103d0000420620008000eb004080200065f20700a2
:103d10006105800080ff2f00008060000000a0008f
:103d2000600588008900a9009a21ef0000e82300bf
:103d3000f00c880000002a00100d88009900a800ef
:103d400010c0b30002e8b70010c0b3000500370090
:103d50009900a9000268ef0010c0b300010037000d
:103d60000040eb000080fa00000006000000fa00ae
:103d7000f5e3a9009920a9008920a900f463a9000e
:103d8000f583a900f543a800f523a900f4c3a90011
:103d9000f503a800f4a3a80040002000202088001c
:103da000f623ef00c13d800000fc2f000080600082
:103db000a001b300c03d8800313f8000f00f280013
:103dc000808060000070200001007000303f88009b
:103dd000413f8000f00f28000080600000b0a0008c
:103de000403f8800e2e6a900e326a900db26a900ff
:103df000df26a800f5e3a8000080fa000000060016
:103e00000400fa0010079800df26a90040012000f6
:103e100001002000ca0007009e00900001208800d9
:103e200000000000e01f8000610060000000e00072
:103e3000fcff320001208000010f780040012000cb
:103e400001002000be000700df26a8001e00780049
:103e50000080fa00000006000c00fa000000eb00f1
:103e6000000f7800070037009e0078001e007800e1
:103e700000004000000047000080e80001087800d2
:103e80001e0fe8001e007800e40f5000f6ff34001b
:103e9000b9000700c000200066f20700602029007a
:103ea00067f20700b1ff070010002000550007006f
:103eb000100020009dfe070000a025002126200004
:103ec0009f000700c00020005af207009091840074
:103ed000cbff070010079800ae0090001e00900076
:103ee000811f7800801f780070212900801f7800d2
:103ef000ddf10700e6875700100020000b000700e7
:103f00000004e000030032001000200058fd07000c
:103f100002003700100020007efd07000048280046
:103f2000e101200086000700e8ff37000200fa00e8
:103f3000000f78001e007800e20f500013003200de
:103f4000e20f500003003e00e10f50000600320077
:103f500029003700e30f500015003200e40f500035
:103f60001c003200240037000135800000042000ce
:103f70000080600000f0a7000000ea000000e900f7
:103f80004f00de00004078001c0037000135800043
:103f9000000820000080600000f0a7000000ea0098
:103fa0000000e9004f00de000040780013003700f9
:103fb00021338000000820000080600000f0a7008e
:103fc0000000ea000000e9004f00de000040780039
:103fd0000a003700013580000000220000806000e8
:103fe00000f0a7000000ea000000e9004f00de003a
:103ff00000407800010037000040eb000080fa002c
:10400000000006000200fa00000f78001e00780091
:10401000e20f50000d003200e20f500003003e009e
:10402000e10f50000600320010003700e30f50008f
:1040300009003200e40f50000a0032000b00370084
:104040009ec6a800a6c6a900080037009ee6a800e4
:10405000a6e6a9000500370062e6a8006ae6a90006
:10406000020037009fa6a800000000000080fa00b0
:044070000000060046
:020000040000fa
:1040740000080000020000008000000004080000a6
:10408400640000008000000002080000020000003c
:104094008000000068080000420000008200000068
:1040a4006c086e00086e08000100030000000000a8
:1040b400000000000000000000008a000d00000065
:1040c40000000000003c08003a040000000000006a
:1040d40000000000000000000000000000000000dc
:1040e40000000000000000000000000000000000cc
:1040f4000000000000000000aa0800001e000000ec
:1041040082000000286e69006c2900002500680008
:10411400076c09004c836a009074a0007ac0000008
:104124008068880000846c0082008100c808000058
:0c413400020000008000000000000000fd
:020000040000fa
:10414000f03fb1000180b10006003500ee03090028
:1041500000000000403fb1000180b100fbff3d00c6
:104160001000b000203fb0000200350000800900c0
:08417000000000000000060041
:020000040000fa
:104178000000fa00c3fa07000080fa0000000600f9
:020000040000fa
:020000040015e5
:047e0000ffffff0081
:020000040000fa
:020000040015e5
:047e2000ff1f000040
:020000040000fa
:020000040015e5
:047e30000bffff0045
:020000040000fa
:020000040015e5
:047e3800beffff008a
:020000040000fa
:020000040015e5
:047e40009fffff00a1
:020000040000fa
:020000040015e5
:047e4800fbffff003d
:020000040000fa
:020000040015e5
:047e5000deffff0052
:020000040000fa
:020000040015e5
:047e5800efffff0039
:00000001FF
