:020000040000fa
:080000000001040000000000f3
:020000040000fa
:040008008c02000066
:020000040000fa
:04000c008c02000062
:020000040000fa
:040010008c0200005e
:020000040000fa
:040014008c0200005a
:020000040000fa
:040018008c02000056
:020000040000fa
:04001c008c02000052
:020000040000fa
:040020008c0200004e
:020000040000fa
:040024008c0200004a
:020000040000fa
:040028008c02000046
:020000040000fa
:04002c008c02000042
:020000040000fa
:040030008c0200003e
:020000040000fa
:0400340004020000c2
:020000040000fa
:040038008c02000036
:020000040000fa
:04003c008c02000032
:020000040000fa
:040040008c0200002e
:020000040000fa
:040044008c0200002a
:020000040000fa
:040048008c02000026
:020000040000fa
:04004c008c02000022
:020000040000fa
:040050008c0200001e
:020000040000fa
:040054008c0200001a
:020000040000fa
:040058008c02000016
:020000040000fa
:04005c008c02000012
:020000040000fa
:040060008c0200000e
:020000040000fa
:040064008c0200000a
:020000040000fa
:040068008c02000006
:020000040000fa
:04006c008c02000002
:020000040000fa
:040070008c020000fe
:020000040000fa
:040074008c020000fa
:020000040000fa
:040078008c020000f6
:020000040000fa
:04007c008c020000f2
:020000040000fa
:040080008c020000ee
:020000040000fa
:040084008c020000ea
:020000040000fa
:040088008c020000e6
:020000040000fa
:04008c008c020000e2
:020000040000fa
:040090008c020000de
:020000040000fa
:040094008c020000da
:020000040000fa
:040098008c020000d6
:020000040000fa
:04009c008c020000d2
:020000040000fa
:0400a0008c020000ce
:020000040000fa
:0400a4008c020000ca
:020000040000fa
:0400a8008c020000c6
:020000040000fa
:0400ac008c020000c2
:020000040000fa
:0400b0008c020000be
:020000040000fa
:0400b4008c020000ba
:020000040000fa
:0400b8008c020000b6
:020000040000fa
:0400bc008c020000b2
:020000040000fa
:0400c0008c020000ae
:020000040000fa
:0400c4008c020000aa
:020000040000fa
:0400c8008c020000a6
:020000040000fa
:0400cc008c020000a2
:020000040000fa
:0400d0008c0200009e
:020000040000fa
:0400d4008c0200009a
:020000040000fa
:0400d8008c02000096
:020000040000fa
:0400dc008c02000092
:020000040000fa
:0400e0008c0200008e
:020000040000fa
:0400e4008c0200008a
:020000040000fa
:0400e8008c02000086
:020000040000fa
:0400ec008c02000082
:020000040000fa
:0400f0008c0200007e
:020000040000fa
:0400f4008c0200007a
:020000040000fa
:0400f8008c02000076
:020000040000fa
:0400fc008c02000072
:020000040000fa
:040100008c0200006d
:020000040000fa
:040104008c02000069
:020000040000fa
:040108008c02000065
:020000040000fa
:04010c008c02000061
:020000040000fa
:040110008c0200005d
:020000040000fa
:040114008c02000059
:020000040000fa
:040118008c02000055
:020000040000fa
:04011c008c02000051
:020000040000fa
:040120008c0200004d
:020000040000fa
:040124008c02000049
:020000040000fa
:040128008c02000045
:020000040000fa
:04012c008c02000041
:020000040000fa
:040130008c0200003d
:020000040000fa
:040134008c02000039
:020000040000fa
:040138008c02000035
:020000040000fa
:04013c008c02000031
:020000040000fa
:040140008c0200002d
:020000040000fa
:040144008c02000029
:020000040000fa
:040148008c02000025
:020000040000fa
:04014c008c02000021
:020000040000fa
:040150008c0200001d
:020000040000fa
:040154008c02000019
:020000040000fa
:040158008c02000015
:020000040000fa
:04015c008c02000011
:020000040000fa
:040160008c0200000d
:020000040000fa
:040164008c02000009
:020000040000fa
:040168008c02000005
:020000040000fa
:04016c008c02000001
:020000040000fa
:040170008c020000fd
:020000040000fa
:040174008c020000f9
:020000040000fa
:040178008c020000f5
:020000040000fa
:04017c008c020000f1
:020000040000fa
:040180008c020000ed
:020000040000fa
:040184008c020000e9
:020000040000fa
:040188008c020000e5
:020000040000fa
:04018c008c020000e1
:020000040000fa
:040190008c020000dd
:020000040000fa
:040194008c020000d9
:020000040000fa
:040198008c020000d5
:020000040000fa
:04019c008c020000d1
:020000040000fa
:0401a0008c020000cd
:020000040000fa
:0401a4008c020000c9
:020000040000fa
:0401a8008c020000c5
:020000040000fa
:0401ac008c020000c1
:020000040000fa
:0401b0008c020000bd
:020000040000fa
:0401b4008c020000b9
:020000040000fa
:0401b8008c020000b5
:020000040000fa
:0401bc008c020000b1
:020000040000fa
:0401c0008c020000ad
:020000040000fa
:0401c4008c020000a9
:020000040000fa
:0401c8008c020000a5
:020000040000fa
:0401cc008c020000a1
:020000040000fa
:0401d0008c0200009d
:020000040000fa
:0401d4008c02000099
:020000040000fa
:0401d8008c02000095
:020000040000fa
:0401dc008c02000091
:020000040000fa
:0401e0008c0200008d
:020000040000fa
:0401e4008c02000089
:020000040000fa
:0401e8008c02000085
:020000040000fa
:0401ec008c02000081
:020000040000fa
:0401f0008c0200007d
:020000040000fa
:0401f4008c02000079
:020000040000fa
:0401f8008c02000075
:020000040000fa
:0401fc008c02000071
:020000040000fa
:100200000f8020000e7f24000e01880000000000f7
:10021000000020000000e000020032000001200089
:100220002002880014000700bd0007000000e00065
:1002300003003a0000002000010020000200370007
:100240000000200001002000810f7000010032003a
:1002500014000700000020000000e000020032004f
:10026000000002000000000076060200000000000e
:100270000040da000000fe004440a9000008200011
:100280000000e00003003200002020009001880000
:100290004440a800000006008a1f78008b1f7800e9
:1002a00000000600a1028800800478000000eb0036
:1002b0001f003700e284440054a0b4009905ba003e
:1002c000e284440054a0b4009906ba00e2844400d9
:1002d00054a0b4000006eb00476fde00fd07b2003b
:1002e000ae018800636ce10003003a00eaff0700fa
:1002f0000000eb000e003700606ce10008003a00df
:10030000004deb000a05e800020039003420ec0043
:100310000af0a0008b05e900f9ff3e000400370059
:100320006168e100010032000086eb000b0007006d
:1003300019c7ba001905ba000e04e00003003a001c
:100340000a00e000dbff3a0000000600fe07b200f2
:10035000ae0288008a047800f5ff37000cd0a300b5
:10036000e20f4d001c00390089027800354dba00bb
:100370000a05e800020039003420ec000af0a00071
:100380008b05e9000f003200254dba000a05e80090
:10039000020039003420ec000af0a0008b05e900cf
:1003a000080032000c00e0000600320015cdba0053
:1003b0000a05e800020039003420ec000af0a00031
:1003c0008b05e9008984e80054a0b4000b00e0002c
:1003d000e2ff3a00000006009902ba00055d7800cd
:1003e0008b05e900f7ff3200c82ade00055d7800c2
:1003f0008b05e900f3ff32000c00e000f1ff320052
:1004000019ddba00eeff37003600f800809fbe000d
:10041000829fbe00849fbe00869fbe003200f8000f
:100420003400f80010002000a00188000020200007
:10043000900188002400fa00f4004700222f2800d1
:1004400007000900b2187800ef01470024302800a7
:1004500003000900b4597800eb004700623028001f
:1004600003000900b25878003e4890000080fb006d
:100470000000400000004700a0089000e70147008e
:10048000a430280003000900b45978007e40900091
:100490000080fb00000040000000470020089000a2
:1004a00010017800e3014700e43028000300090050
:1004b000b45978004e4090000080fb0013002000eb
:1004c0000018dd000080ea0000006100800878006c
:1004d00010c0b300004f780030c0b3001047980040
:1004e0000040eb00204798001e0078009e0090001e
:1004f000c40007000080fa003400f9003200f9005f
:100500004f03be004f02be004f01be004f00be00b1
:100510003600f900004006000040da000000fe004e
:0405200000000500d2
:020000040000fa
:10052400880000008a0000008c0000008e0000009b
:10053400900000009200000094000000960000006b
:10054400980000009a0000009c0000009e0000003b
:10055400a0000000a2000000a4000000a60000000b
:10056400a8000000aa000000ac000000ae000000db
:10057400b0000000b2000000b4000000b6000000ab
:10058400b8000000ba000000bc000000be0000007b
:10059400c0000000c2000000c4000000c60000004b
:1005a400c8000000ca000000cc000000ce0000001b
:1005b400d0000000d2000000d4000000d6000000eb
:1005c400d8000000da000000dc000000de000000bb
:1005d400e0000000e200000000030000000e000044
:1005e400880000008a0000008c0000008e000000db
:1005f40090000000920000009400000096000000ab
:1006040000030000000e000000030000000e0000c4
:1006140000030000000e000000030000000e0000b4
:020000040000fa
:100624000600fa00000f780011079800424798006e
:100634001e4078000080fb000000e0000300320050
:10064400e10f5000200032003e0037001e409000b1
:100654000080fb00110020000008dd000080ea009b
:100664008000780010338000808060004e4090004d
:100674000081fb001e4090000080fb000010dd00a4
:1006840001007000103388001e4090000080fb00c1
:10069400110020000008dd000080ea0080007800de
:1006a40050338000808060002e4090000081fb0069
:1006b4001e4090000080fb000010dd00010070006f
:1006c400503388001f0037001e4090000080fb005c
:1006d400110020000008dd000080ea00800078009e
:1006e400b0338000808060004e4090000081fb00a9
:1006f4001e4090000080fb000010dd00010070002f
:10070400b03388001e4090000080fb0011002000e0
:100714000008dd000080ea0080007800f0338000eb
:10072400808060002e4090000081fb001e409000fd
:100734000080fb000010dd0001007000f033880031
:10074400000000000080fa00000006000600fa0025
:10075400000f780011079800424798001e40780067
:100764000080fb000000e00003003200e10f5000b5
:1007740011003200200037001e4090000080fb0072
:10078400110020000008dd000080ea0080007800ed
:1007940030338000808060004e4090000081fb0078
:1007a4001e4090000080fb000010dd00010070007e
:1007b40030338800100037001e4090000080fb009a
:1007c400110020000008dd000080ea0080007800ad
:1007d400d0338000808060004e4090000081fb0098
:1007e4001e4090000080fb000010dd00010070003e
:1007f400d0338800000000000080fa0000000600ea
:100804000400fa00000f7800110798001e407800d9
:100814000080fb000000e00003003200e10f500004
:10082400180032002e0037001e4090000080fb00ac
:10083400110020000008dd000080ea00800078003c
:100844003033800080806000323380001e4090008e
:100854000080fb000010de006100600000f0a700d3
:100864000000ea000000e9004f00de001e41900095
:100874000281fb000200dd000100700030338800bb
:10088400170037001e4090000080fb00110020007c
:100894000008dd000080ea0080007800d03380008a
:1008a40080806000d23380001e4090000080fb00f6
:1008b4000010de006100600000f0a7000000ea0004
:1008c4000000e9004f00de001e4190000281fb00a1
:1008d4000200dd0001007000d03388000000000039
:1008e4000080fa00000006000400fa00000f7800ff
:1008f40011079800c00b800000b0a100c00b880055
:100904009e007800a10c88009e009000910c880045
:100914009021ef000080fa00000006006200fa0057
:10092400602f9800712f980002e798002129280071
:1009340007000900311f78000e01b1007001470063
:10094400212a28000700090031197800020220003a
:1009540002014700212b28001d00090031197800ed
:100964000ee09000e74f50000200360070c0b30064
:1009740000e798004ed890000080fb000000400083
:10098400ee0078004ed890000080fb00000040008c
:100994006e007800100178005ed890000080fb00a3
:1009a400130020000018dd000080ea000000610050
:1009b400800878004ed890000080fb0000004000c2
:1009c40000004700800890004ed890000080fb0093
:1009d400000040000000470000089000100178006b
:1009e4005ed890000080fb00130020000018dd009a
:1009f4000080ea00000161005ed890000080fb00e6
:100a0400130020000018dd00020070008008780048
:100a14006ed890000080fb000000400000004700fa
:100a2400801090006ed890000080fb000000400011
:100a34000000470000109000100178007ed890005c
:100a44000080fb00130020000018dd000080ea0095
:100a5400000161000ee090000080fb00e4016000f2
:100a64007ed890000080fb000018dd0002007000ba
:100a7400800878006ed890000080fb0000004000e1
:100a840000004700801090006ed890000080fb00aa
:100a940000004000000047000010900010017800a2
:100aa4007ed890000080fb000000e90013002000c5
:100ab4000018dd000080ea00000161000ee09000f3
:100ac4000080fb00e20160007ed890000080fb0003
:100ad4000000e9000018dd000200700080087800c2
:100ae4006ed890000080fb0000004000000047002a
:100af400801090006ed890000080fb000000400041
:100b04000000470000109000100178007ed890008b
:100b14000080fb000080e900130020000018dd00c5
:100b24000080ea00000161000ee090000080fb00fc
:100b3400e10160007ed890000080fb000080e900a5
:100b44000018dd0002007000800878000080fa00c0
:100b5400000006000a00fa00000f78001107980050
:100b64002207980033079800440798009e007800f5
:100b7400010888009e00900031088800ae009000b3
:100b840011088800be00900061088800ce00900023
:100b9400710888000080fa00000006000a00fa00cc
:100ba4000002eb008001eb000001eb008000eb0091
:100bb4000000eb00e7ff070081bb200000032800d2
:100bc40049ff070010c0b3007047980030c0b3005d
:100bd400004f98000040eb00104f98007e409000ba
:100be4000080fb008e4890008180fb00c808dd0077
:100bf400810070000000eb00010078009e48900026
:100c04008181fb008000eb00f20f20000281610073
:100c140003f02f0083806000810071000041eb002d
:100c24007ffe070010c0b3004047980030c0b300f7
:100c3400504798000040eb00604798000041eb00eb
:100c44002e009000be009000c0fe070072178400c2
:100c540083178400028fbe0062c0b3001e007800b8
:100c64009e0090002dff070083e0a8000080fa009a
:100c7400000006000000fa000140fe000080fa00b7
:100c8400000006000000fa006a26ef007e26ef004e
:100c94006226ef007626ef006626ef007a26ef0044
:100ca4000080eb00c00b88000080eb00d00b8800b4
:100cb4000080eb00e00b88000080eb00f00b880064
:100cc4000080eb00000c88000080eb00100c880012
:100cd4000080eb00200c88000080eb00300c8800c2
:100ce4000080fa00000006000000fa00e5ff07009b
:0c0cf400aaff0700dfff0700feff37002b
:00000001FF
