:020000040000fa
:080000000001040000000000f3
:020000040000fa
:040008003c020000b6
:020000040000fa
:04000c003c020000b2
:020000040000fa
:040010003c020000ae
:020000040000fa
:040014003c020000aa
:020000040000fa
:040018003c020000a6
:020000040000fa
:04001c003c020000a2
:020000040000fa
:040020003c0200009e
:020000040000fa
:040024003c0200009a
:020000040000fa
:040028003c02000096
:020000040000fa
:04002c003c02000092
:020000040000fa
:040030003c0200008e
:020000040000fa
:0400340004020000c2
:020000040000fa
:040038003c02000086
:020000040000fa
:04003c003c02000082
:020000040000fa
:040040003c0200007e
:020000040000fa
:040044003c0200007a
:020000040000fa
:040048003c02000076
:020000040000fa
:04004c003c02000072
:020000040000fa
:040050003c0200006e
:020000040000fa
:040054003c0200006a
:020000040000fa
:040058003c02000066
:020000040000fa
:04005c003c02000062
:020000040000fa
:040060003c0200005e
:020000040000fa
:040064003c0200005a
:020000040000fa
:040068003c02000056
:020000040000fa
:04006c003c02000052
:020000040000fa
:040070003c0200004e
:020000040000fa
:040074003c0200004a
:020000040000fa
:040078003c02000046
:020000040000fa
:04007c003c02000042
:020000040000fa
:040080003c0200003e
:020000040000fa
:040084003c0200003a
:020000040000fa
:040088003c02000036
:020000040000fa
:04008c003c02000032
:020000040000fa
:040090003c0200002e
:020000040000fa
:040094003c0200002a
:020000040000fa
:040098003c02000026
:020000040000fa
:04009c003c02000022
:020000040000fa
:0400a0003c0200001e
:020000040000fa
:0400a4003c0200001a
:020000040000fa
:0400a8003c02000016
:020000040000fa
:0400ac003c02000012
:020000040000fa
:0400b0003c0200000e
:020000040000fa
:0400b4003c0200000a
:020000040000fa
:0400b8003c02000006
:020000040000fa
:0400bc003c02000002
:020000040000fa
:0400c0003c020000fe
:020000040000fa
:0400c4003c020000fa
:020000040000fa
:0400c8003c020000f6
:020000040000fa
:0400cc003c020000f2
:020000040000fa
:0400d0003c020000ee
:020000040000fa
:0400d4003c020000ea
:020000040000fa
:0400d8003c020000e6
:020000040000fa
:0400dc003c020000e2
:020000040000fa
:0400e0003c020000de
:020000040000fa
:0400e4003c020000da
:020000040000fa
:0400e8003c020000d6
:020000040000fa
:0400ec003c020000d2
:020000040000fa
:0400f0003c020000ce
:020000040000fa
:0400f4003c020000ca
:020000040000fa
:0400f8003c020000c6
:020000040000fa
:0400fc003c020000c2
:020000040000fa
:040100003c020000bd
:020000040000fa
:040104003c020000b9
:020000040000fa
:040108003c020000b5
:020000040000fa
:04010c003c020000b1
:020000040000fa
:040110003c020000ad
:020000040000fa
:040114003c020000a9
:020000040000fa
:040118003c020000a5
:020000040000fa
:04011c003c020000a1
:020000040000fa
:040120003c0200009d
:020000040000fa
:040124003c02000099
:020000040000fa
:040128003c02000095
:020000040000fa
:04012c003c02000091
:020000040000fa
:040130003c0200008d
:020000040000fa
:040134003c02000089
:020000040000fa
:040138003c02000085
:020000040000fa
:04013c003c02000081
:020000040000fa
:040140003c0200007d
:020000040000fa
:040144003c02000079
:020000040000fa
:040148003c02000075
:020000040000fa
:04014c003c02000071
:020000040000fa
:040150003c0200006d
:020000040000fa
:040154003c02000069
:020000040000fa
:040158003c02000065
:020000040000fa
:04015c003c02000061
:020000040000fa
:040160003c0200005d
:020000040000fa
:040164003c02000059
:020000040000fa
:040168003c02000055
:020000040000fa
:04016c003c02000051
:020000040000fa
:040170003c0200004d
:020000040000fa
:040174003c02000049
:020000040000fa
:040178003c02000045
:020000040000fa
:04017c003c02000041
:020000040000fa
:040180003c0200003d
:020000040000fa
:040184003c02000039
:020000040000fa
:040188003c02000035
:020000040000fa
:04018c003c02000031
:020000040000fa
:040190003c0200002d
:020000040000fa
:040194003c02000029
:020000040000fa
:040198003c02000025
:020000040000fa
:04019c003c02000021
:020000040000fa
:0401a0003c0200001d
:020000040000fa
:0401a4003c02000019
:020000040000fa
:0401a8003c02000015
:020000040000fa
:0401ac003c02000011
:020000040000fa
:0401b0003c0200000d
:020000040000fa
:0401b4003c02000009
:020000040000fa
:0401b8003c02000005
:020000040000fa
:0401bc003c02000001
:020000040000fa
:0401c0003c020000fd
:020000040000fa
:0401c4003c020000f9
:020000040000fa
:0401c8003c020000f5
:020000040000fa
:0401cc003c020000f1
:020000040000fa
:0401d0003c020000ed
:020000040000fa
:0401d4003c020000e9
:020000040000fa
:0401d8003c020000e5
:020000040000fa
:0401dc003c020000e1
:020000040000fa
:0401e0003c020000dd
:020000040000fa
:0401e4003c020000d9
:020000040000fa
:0401e8003c020000d5
:020000040000fa
:0401ec003c020000d1
:020000040000fa
:0401f0003c020000cd
:020000040000fa
:0401f4003c020000c9
:020000040000fa
:0401f8003c020000c5
:020000040000fa
:0401fc003c020000c1
:020000040000fa
:100200000f8020000e7f24000e01880000000000f7
:10021000000020000000e000020032000001200089
:100220002002880014000700950007000000e0008d
:1002300003003a0000002000010020000200370007
:100240000000200001002000810f7000010032003a
:1002500014000700000020000000e000020032004f
:1002600000000200000000003a040200000000004c
:100270000040da000000fe004440a90020002000f9
:100280000000e00003003200100020009001880010
:100290004440a800000006008a1f78008b1f7800e9
:1002a00000000600a1028800800478000000eb0036
:1002b0001f003700e284440054a0b4009905ba003e
:1002c000e284440054a0b4009906ba00e2844400d9
:1002d00054a0b4000006eb00476fde00fd07b2003b
:1002e000ae018800636ce10003003a00eaff0700fa
:1002f0000000eb000e003700606ce10008003a00df
:10030000004deb000a05e800020039003420ec0043
:100310000af0a0008b05e900f9ff3e000400370059
:100320006168e100010032000086eb000b0007006d
:1003300019c7ba001905ba000e04e00003003a001c
:100340000a00e000dbff3a0000000600fe07b200f2
:10035000ae0288008a047800f5ff37000cd0a300b5
:10036000e20f4d001c00390089027800354dba00bb
:100370000a05e800020039003420ec000af0a00071
:100380008b05e9000f003200254dba000a05e80090
:10039000020039003420ec000af0a0008b05e900cf
:1003a000080032000c00e0000600320015cdba0053
:1003b0000a05e800020039003420ec000af0a00031
:1003c0008b05e9008984e80054a0b4000b00e0002c
:1003d000e2ff3a00000006009902ba00055d7800cd
:1003e0008b05e900f7ff3200c82ade00055d7800c2
:1003f0008b05e900f3ff32000c00e000f1ff320052
:1004000019ddba00eeff37003600f800809fbe000d
:10041000829fbe00849fbe00869fbe003200f8000f
:100420003400f80010002000a00188001000200017
:10043000900188000200fa008860a90010c0b30093
:10044000004f780030c0b300104798001e007800bd
:10045000830007000080fa003400f9003200f90040
:100460004f03be004f02be004f01be004f00be0052
:100470003600f900004006000040da000000fe00ef
:040480000000050073
:020000040000fa
:100484000400fa00000f78002147980032479800d2
:100494001e4078000080fb000000e00003003200f2
:1004a400e10f5000200032003e0037001e40900053
:1004b4000080fb00110020000008dd000080ea003d
:1004c4008000780010338000808060002e4090000f
:1004d4000081fb001e4090000080fb000010dd0046
:1004e40001007000103388001e4090000080fb0063
:1004f400110020000008dd000080ea008000780080
:1005040050338000808060003e4090000081fb00fa
:100514001e4090000080fb000010dd000100700010
:10052400503388001f0037001e4090000080fb00fd
:10053400110020000008dd000080ea00800078003f
:10054400b0338000808060002e4090000081fb006a
:100554001e4090000080fb000010dd0001007000d0
:10056400b03388001e4090000080fb001100200082
:100574000008dd000080ea0080007800f03380008d
:10058400808060003e4090000081fb001e4090008f
:100594000080fb000010dd0001007000f0338800d3
:1005a400000000000080fa00000006000400fa00c9
:1005b400000f7800214798001e4078000080fb005f
:1005c4000000e00003003200e10f5000110032008f
:1005d400200037001e4090000080fb001100200026
:1005e4000008dd000080ea008000780030338000dd
:1005f400808060002e4090000081fb001e4090002f
:100604000080fb000010dd00010070003033880022
:10061400100037001e4090000080fb0011002000f5
:100624000008dd000080ea0080007800d0338000fc
:10063400808060002e4090000081fb001e409000ee
:100644000080fb000010dd0001007000d033880042
:10065400000000000080fa00000006000200fa001a
:10066400000f78001e4078000080fb000000e000ce
:1006740003003200e10f5000180032002e00370052
:100684001e4090000080fb00110020000008dd00e7
:100694000080ea00800078003033800080806000b1
:1006a400323380001e4090000080fb000010de000a
:1006b4006100600000f0a7000000ea000000e9000b
:1006c4004f00de001e4190000281fb000200dd00ad
:1006d4000100700030338800170037001e4090007e
:1006e4000080fb00110020000008dd000080ea000b
:1006f40080007800d033800080806000d233800096
:100704001e4090000080fb000010de0061006000cd
:1007140000f0a7000000ea000000e9004f00de003e
:100724001e4190000281fb000200dd000100700008
:10073400d0338800000000000080fa0000000600aa
:100744000400fa00000f7800110798009e0078005a
:10075400a10c88009e009000910c88009021ef006d
:100764000080fa00000006000a00fa00000f78007a
:10077400110798002207980033079800440798004f
:100784009e007800010888009e00900031088800cf
:10079400ae00900011088800be0090006108880037
:1007a400ce009000710888000080fa000000060066
:1007b4000400fa000002eb008001eb000001eb00f2
:1007c4008000eb000000eb00e7ff070081de2f0054
:1007d40000032800daff070010c0b3002047980088
:1007e40030c0b300304798000041eb008040eb007c
:1007f4001e00900022ff070010c0b300004f7800d5
:1008040030c0b300104798008040eb001e00780011
:1008140066ff07008860a90041058000f0ff2800fa
:100824008080600000002600010070004005880000
:100834009860a80083e0a8000080fa000000060089
:100844000000fa000080fa00000006000000fa0030
:100854006a26ef007e26ef006226ef007626ef0080
:100864006626ef007a26ef000080fa0000000600fa
:100874000000fa00f5ff0700cdff0700f0ff0700b6
:04088400feff37003c
:00000001FF
