:020000040000fa
:080000000001040000000000f3
:020000040000fa
:0400480004020000ae
:020000040000fa
:100200008f8620000eff27000e01880000000000ee
:10021000000020000000e000020032000001200089
:100220002002880014000700d30007000000e0004f
:1002300003003a008018210001002000020037006e
:100240000000200001002000810f7000010032003a
:1002500014000700000020000000e000020032004f
:1002600000000200000000009c10020000000000de
:100270000040da000000fe004440a900c000200059
:100280000000e00003003200002020009001880000
:100290004440a800000006008a1f78008b1f7800e9
:1002a00000000600a1028800800478000000eb0036
:1002b0001f003700e284440054a0b4009905ba003e
:1002c000e284440054a0b4009906ba00e2844400d9
:1002d00054a0b4000006eb00476fde00fd07b2003b
:1002e000ae018800636ce10003003a00eaff0700fa
:1002f0000000eb000e003700606ce10008003a00df
:10030000004deb000a05e800020039003420ec0043
:100310000af0a0008b05e900f9ff3e000400370059
:100320006168e100010032000086eb000b0007006d
:1003300019c7ba001905ba000e04e00003003a001c
:100340000a00e000dbff3a0000000600fe07b200f2
:10035000ae0288008a047800f5ff37000cd0a300b5
:10036000e20f4d001c00390089027800354dba00bb
:100370000a05e800020039003420ec000af0a00071
:100380008b05e9000f003200254dba000a05e80090
:10039000020039003420ec000af0a0008b05e900cf
:1003a000080032000c00e0000600320015cdba0053
:1003b0000a05e800020039003420ec000af0a00031
:1003c0008b05e9008984e80054a0b4000b00e0002c
:1003d000e2ff3a00000006009902ba00055d7800cd
:1003e0008b05e900f7ff3200c82ade00055d7800c2
:1003f0008b05e900f3ff32000c00e000f1ff320052
:1004000019ddba00eeff37003600f800809fbe000d
:10041000829fbe00849fbe00869fbe003200f8000f
:100420003400f80010002000a00188000020200007
:10043000900188000200fa000040eb00004f7800b5
:10044000360037001e80fb006a00b900800078008b
:100450004080200000804000100078000000e00094
:100460002d0032001e81fb006a10b90000007800e8
:10047000e600400040802000008040001000be00e8
:1004800061004000e08048006a11b90082017800f4
:10049000a2802000028141000089be001e80fb0076
:1004a0006a00b90000007800e600400040802000ab
:1004b000008040001001be001e80fb006a00b900f1
:1004c000000078008080e80040802000008040002c
:1004d0001000be00800f5100818f59000e003a00bd
:1004e0001e80fb006a00b900800078004080200078
:1004f0000080400010007800000001001e80fb001a
:100500006a00b90080007800a080200000814000cf
:100510006000b8000089be001e4fe8001e40780051
:10052000e94f5000c7ff36008900a9000080fa009b
:100530003400f9003200f9004f03be004f02be0044
:100540004f01be004f00be003600f900004006001b
:100550000600fa00000f78001107980022079800a3
:100560001e009000ae009000fc0207002e009000dc
:100570000080fa000000060000000500889fbe0011
:100580008a9fbe00800478000200e0005b00320019
:1005900001407800814c780082814400f1f99f008d
:1005a000e20f51005500360091449800a144980094
:1005b000e1f99f00d1f99f00e60f51004f0036008e
:1005c000b1449800c1f99f00e80f51004b0036007c
:1005d0000905ea00630565000a8444000a05510024
:1005e000c1ff2f00010565000080fb008000eb00cb
:1005f000121020001310200044000700008cbe00e1
:100600000a01440060b99f0071b99f00e80f5500ce
:100610003a00360020049800310498004004980005
:100620005104980020b99f0031b99f0040b99f0044
:1006300051b99f00f80f5500300036006004980053
:1006400071049800000c9800110c9800200c980080
:10065000310c9800400c9800510c980020b19f007c
:1006600031b19f0040b19f0051b19f0060b19f0028
:1006700071b19f0000b99f0011b99f00640164002f
:100680007801410002044400020555006011b800e1
:100690000203be000002be000403be006022b800d8
:1006a0000000720081807200020173008381730078
:1006b00010003700009cbe000294be004004980069
:1006c000510498006204980073049800000c98008c
:1006d000110c9800220c9800330c9800400c9800e4
:1006e000510c9800620c9800730c98000a02b1003b
:1006f0000802b000ff0f5500eeff3e000900780031
:100700004f05be004f04be0000000600020ab900fb
:10071000001bb9000200b8008100420081004300c4
:0407200000000600cf
:020000040000fa
:1007240000030000030600000104000006020000ac
:080734000500000003050000b0
:020000040000fa
:10073c001200fa00000f9800e3004700223928004d
:10074c000b000900b258780040c3b3000000fb0056
:10075c004400dd008040780080c3b3006f4060002f
:10076c0000c07000804078000e0890007140980026
:10077c0020c3b3000000fb004400dd008040780083
:10078c0080c3b3006f40600000c0700080407800f0
:10079c000e0890006140980010c3b3000000fb00ed
:1007ac004400dd008040780020c3b3006f4060003f
:1007bc0000c07000804078000e08900051409800f6
:1007cc0020c3b3000000fb004400dd008040780033
:1007dc0020c3b3006f40600000c070008040780000
:1007ec000e0890003140980020c3b3000000fb00bd
:1007fc004400dd008040780050c3b3006f406000bf
:10080c0000c07000804078000e08900011409800e5
:10081c0030c5b3000000fb00a1042000810f500084
:10082c001e003200a1042000810f50000a003c0081
:10083c0041042000810f500061003200610420004f
:10084c00810f50003200320011042000810f500043
:10085c00420032005d003700e1042000810f50009f
:10086c0054003200e1042000810f500004003c00d1
:10087c00d1042000810f50002800320053003700b3
:10088c00f1042000810f5000470032003105200098
:10089c00810f5000410032004c00370050c6b300ad
:1008ac000000fb0011062000810f500004003200f4
:1008bc0051072000810f5000040032004300370024
:1008cc0010c0b300104798001000370000c7b300e9
:1008dc000000fb00c1062000810f50000700320011
:1008ec00e1062000810f50000100320006003700a5
:1008fc0060c0b300104798000300370070c0b3000d
:10090c001047980000000000000000002f00370086
:10091c0020c0b300104798002c00370000c7b3006c
:10092c000000fb0021072000810f50000400320062
:10093c0091072000810f5000040032002300370083
:10094c0030c0b300104798000300370050c0b3000c
:10095c0010479800000000001c00370050c6b30080
:10096c000000fb0001072000810f50000400320042
:10097c0051072000810f5000040032001300370093
:10098c0040c0b300104798000300370080c0b3008c
:10099c0010479800000000000c00370090c0b30016
:1009ac00104798000900370000c1b30010479800a9
:1009bc000600370010c1b300104798000300370041
:1009cc0020c1b30010479800000000000e089000f2
:1009dc009e4090002140980060c0b300004f78000a
:1009ec000e089000104090000080fb004400de00d8
:1009fc00004078006a00b900000078008040780060
:100a0c000e089000104090006f40600000c0400045
:100a1c00204798002e4090000080fb004200de0032
:100a2c00804078002e40900000c040001e4f4000d7
:100a3c002e409000634060000004e00004003a0087
:100a4c001e409000e24f500001003e001e4fe90096
:100a5c001e4090000080fb000000e90000004700f1
:100a6c00304090001e4f40000e0890003040900027
:100a7c000080fb004400de00004078006a00b900f2
:100a8c0000007800804078000e0890003040900004
:100a9c006f40600000c040001e4f40009e80fb0075
:100aac007000200000017800110009008280d8003d
:100abc008000fd00004f78000e0890009e407800ea
:100acc00414098000e089000104078000004a200ed
:100adc000004e000230032000e089000104090004b
:100aec00f90007008e089000904098000e089000c6
:100afc0020409000f40007008e089000a040980061
:100b0c000e08900030409000ef0007008e08900017
:100b1c00b04098000e08900040409000ea0007009a
:100b2c008e089000c04098000e0890005040900035
:100b3c00e50007008e089000d04098000e08900049
:100b4c0060409000e00007008e089000e0409800a4
:100b5c000e08900070409000db0007008e0890009b
:100b6c00f04098000080fa00000006000200fa0035
:100b7c00881f7800000f78002200200060042000fd
:100b8c00710520000310200080497800814978000d
:100b9c0082497800cc21ef00871f7800881f7800ed
:100bac000500fc0057052000373b8800a80a2000f0
:100bbc00383b8800cd61a9004f047800cf03780042
:100bcc001e007800104078000004e0002200320083
:100bdc001e007800104090000080fb004800dd00f3
:100bec00800078001e007800204090000080fb0000
:100bfc0001007000100f88001e007800304090003b
:100c0c000080fb00c800dd001e0078004040900012
:100c1c000080fb0001007000000f88001e007800af
:100c2c00504090000080fb00c800dd001e007800e2
:100c3c00604090000080fb0001007000f00e880006
:100c4c001e007800704090000080fb004800dd0022
:100c5c00e00e8800270037001e007800104090003e
:100c6c00840007000080fb004804dd001e007800b3
:100c7c00204090007f0007000080fb0008007000ff
:100c8c00100f88001e00780030409000790007009b
:100c9c000080fb004804dd001e00780040409000fe
:100cac00740007000080fb0008007000000f880033
:100cbc001e007800504090006e0007000080fb0082
:100ccc004804dd001e0078006040900069000700b9
:100cdc000080fb0008007000f00e88001e007800f9
:100cec0070409000630007000080fb004800dd00ae
:100cfc00e00e880010002800600e88004f04780079
:100d0c000080fa00000006000400fa0010079800aa
:100d1c00d861a80000000000c00e800068006000d0
:100d2c000000e000fcff3200910f8000010f780002
:100d3c001e007800804078001e0090002140980032
:100d4c001e0078004800de00804078001e009000f5
:100d5c0011409800810f8000010f78001e00780070
:100d6c00804078001e009000414098001e007800e2
:100d7c004800de00804078001e0090003140980052
:100d8c00710f8000010f78001e0078008040780001
:100d9c001e009000614098001e0078004800de00a4
:100dac00804078001e00900051409800610f800038
:100dbc00010f78001e0078004800de0080407800ab
:100dcc001e009000714098001e00900010407800aa
:100ddc000004a2000004e000230032001e0090007a
:100dec0010409000380007009e0090009040980042
:100dfc001e00900020409000330007009e009000e1
:100e0c00a04098001e009000304090002e0007007b
:100e1c009e009000b04098001e0090004040900052
:100e2c00290007009e009000c04098001e00900012
:100e3c0050409000240007009e009000d040980085
:100e4c001e009000604090001f0007009e00900064
:100e5c00e04098001e009000704090001a000700bf
:100e6c009e009000f0409800d861a9000080fa0024
:100e7c00000006000200fa00004f78009e80fb0084
:100e8c00d0cc2c000008b8004308de0000407800ed
:100e9c000080fb004400dd00804178001e81fb00d7
:100eac00d0cc2c000010b8004308de006a00b9005a
:100ebc0000007800000051000040780000c0710074
:100ecc000080fa00000006000200fa00004f7800d3
:100edc001e80fb004400de00004078006a00b90070
:100eec0000007800804078001e4178006f4061005f
:100efc0000c040000080fa00000006000200fa006a
:100f0c00000f78001e00780018ff07000080fa0020
:100f1c00000006000200fa00000f78001e007800a6
:100f2c0079ff07000080fa00000006000800fa00b4
:100f3c00889fbe008a9fbe008c9fbe004109800026
:100f4c00f07f2e000080600040098800410980007d
:100f5c000030200001007000400988004109800029
:100f6c00f0f32f00008060004009880028a1a90040
:100f7c002881a9002841a9000020200090098800a0
:100f8c0031e1a90031c1a8003181a8003141a8008c
:100f9c003121a80031a1a8003101a90081098000ec
:100fac00f0f92f000080600080098800a109800002
:100fbc00f0ff230000806000a0098800a1098000d8
:100fcc00000c200001007000a0098800a10980001d
:100fdc00c003200001007000a0098800a009800057
:100fec003000b300a00988002a61ef001000200037
:100ffc00700988002de1a8002dc1a8002d81a80042
:10100c002da1a90061098000006020000100700082
:10101c00600988002d01a80029e1a80000882300a0
:10102c00110020008c010700008823001100200013
:10103c00890107003203200001002800010f78000d
:10104c004100200011079800a00180009e01900033
:10105c009e007800a301880082087800a001880017
:10106c0050032000010020007b0107002203200018
:10107c00010028002107980041002000310798004a
:10108c00a0018000be019000ae009000a30188007a
:10109c0082087800a0018800500320000100200085
:1010ac006d010700820320000c0028004d00200079
:1010bc00a00180008d0178008c007800a3018800cd
:1010cc0082087800a0018800500320000100200055
:1010dc0061010700c20020000a0028004b0020001c
:1010ec00a00180008b0178008a007800a3018800a1
:1010fc0082087800a0018800500320000100200025
:10110c00550107006200200008002800490020005b
:10111c00a00180008901780088007800a301880074
:10112c0082087800a00188005003200001002000f4
:10113c00490107007800070010c0b3004f06be003d
:10114c004f05be004f04be000080fa0000000600f0
:10115c000400fa00000f7800110798000a0037000d
:10116c001e007800104078000000fb000000e0003a
:10117c00110032001e007800104078001e0fe800ad
:10118c0010000700000000001e00900000f0a700f7
:10119c000000ea000000ea004f00de00004078008a
:1011ac009e0090008100e900110798000004e00007
:1011bc00ebff3a0001003700000000000080fa004d
:1011cc00000006000200fa00889fbe00004f780065
:1011dc001e00fb00ea0f50000b003200ea0f50001b
:1011ec0003003c00e80f50000e00320014003700e2
:1011fc00ec0f500010003200ed0f500010003a00c0
:10120c00640007004100370000c8bf000004e00084
:10121c0002003a00050107003c003700f800070007
:10122c003a0037007c00070000c2b300e5ff07005e
:10123c00790007003500370037000700330037000e
:10124c0001c8bf00f04f500020003a000168ef00c9
:10125c0000c8bf000004e0000f003a00020c2000a0
:10126c000400280045002000a001800085017800c2
:10127c0084007800a301880082087800a00188000f
:10128c005003200001002000f300070010c0b30041
:10129c0000e8b7000d003700040820000200280009
:1012ac0043002000a00180008302780082007800b7
:1012bc00a501880084087800a00188005003200054
:1012cc0001002000e40007000068ef001e01fb0095
:1012dc002800280049002000a00180008901780026
:1012ec0088007800a301880082087800a00188009b
:1012fc005003200001002000d700070001c8bf00e8
:10130c000040e80001e8b700000000004f04be00f8
:10131c000080fa00000006000000fa00889fbe0062
:10132c00130020000000280041002000a2018000d2
:10133c000102780000007800a401880003087800fe
:10134c00a2018800a088200001002000c200070034
:10135c00220020000800280049002000a001800085
:10136c008901780088007800a30188008208780041
:10137c00a0018800a088200001002000b600070012
:10138c000068ef000168ef004f04be000080fa0017
:10139c00000006000000fa000480200014427800cf
:1013ac000404e0000d003a000408200002002800ac
:1013bc0043002000a00180008302780082007800a6
:1013cc00a501880084087800a00188005003200043
:1013dc0001002000a00007000c003700030c2000c7
:1013ec000000280041002000a201800001027800ca
:1013fc0000007800a401880003087800a20188008e
:10140c005003200001002000930007000168ef004a
:10141c000080fa00000006000200fa00168020008e
:10142c00164378000604e00028003a0000c8bf000c
:10143c000004e0000f003a00020c20000400280019
:10144c0045002000a0018000850178008400780010
:10145c00a301880082087800a001880050032000b6
:10146c00010020007c00070010c0b30000e8b700aa
:10147c000d00370004082000020028004300200063
:10148c00a00180008302780082007800a50188000a
:10149c0084087800a001880050032000010020007f
:1014ac006d0007000068ef000040eb00004f780073
:1014bc0002003700190007001e4fe8001e4078009c
:1014cc00ee4f5000fbff3600120037001280200058
:1014dc00124178000241e90082417800118020001d
:1014ec008348780003012000000028004100200000
:1014fc00a20180000102780000007800a40188009d
:10150c0003087800a201880050032000010020008d
:10151c00510007000080fa00000006000000fa00ed
:10152c00889fbe008a9fbe00430120000000280057
:10153c0041002000a2018000010278000000780028
:10154c00a401880003087800a20188005003200041
:10155c00010020004000070001c8bf000040e80067
:10156c0001e8b70001c8bf00f04f500020003a005e
:10157c000168ef0000c8bf000004e0000f003a0053
:10158c00020c20000a0028004b002000a001800063
:10159c008b0178008a007800a3018800820878000b
:1015ac00a001880050032000010020002a00070041
:1015bc0010c0b30000e8b7000d003700020820008f
:1015cc000800280049002000a00180008901780053
:1015dc0088007800a301880082087800a0018800a8
:1015ec0050032000010020001b0007000068ef00e2
:1015fc004f05be004f04be000080fa00000006003c
:10160c000200fa000040eb00004f780002003700a7
:10161c0081ff07001e4fe8001e407800ef4f50007e
:10162c00fbff36000080fa00000006000200fa0002
:10163c000040eb00004f780002003700b7ff0700b6
:10164c001e4fe8001e407800ef4f5000fbff3600a5
:10165c000080fa00000006000400fa00008fbe00b3
:10166c0005003700000000000081eb008081eb00da
:10167c001e0f41005e9749001e00be00e00f500097
:10168c00e08f5800f7ff3a000080fa0000000600d7
:10169c000200fa00004f78001e4078000004e000c1
:1016ac000d003200f200200004002800450020004c
:1016bc00a00180008501780084007800a3018800d7
:1016cc0082087800a001880050032000010020004f
:1016dc00e1ff07000c003700c400200002002800c6
:1016ec0043002000a0018000830278008200780073
:1016fc00a501880084087800a00188005003200010
:10170c0001002000d4ff07000080fa000000060052
:10171c000200fa00000f78001e007800e40f500061
:10172c0018003200e40f500007003e00e20f50009a
:10173c0010003200e20f500010003e00e10f50008c
:10174c000a00320019003700e60f50001100320079
:10175c00e60f50000d003900e70f50000f0032006b
:10176c00e80f50000f003200100037006606a8008a
:10177c000e0037006626a8000c0037006646a8004d
:10178c000a0037006666a800080037006686a800c5
:10179c000600370066a6a8000400370066c6a8003d
:1017ac000200370066e6a800000000000080fa0086
:1017bc00000006000200fa00000f78001e007800fe
:1017cc00e40f500018003200e40f500007003e00f8
:1017dc00e20f500010003200e20f500010003e00eb
:1017ec00e10f50000a00320019003700e60f5000dc
:1017fc0011003200e60f50000d003900e70f5000c9
:10180c000f003200e80f50000f00320010003700bc
:10181c006606a9000e0037006626a9000c003700ea
:10182c006646a9000a0037006666a9000800370062
:10183c006686a9000600370066a6a90004003700da
:10184c0066c6a9000200370066e6a9000000000089
:10185c000080fa00000006000200fa00000f780079
:10186c001e007800e40f500038003200e40f5000e6
:10187c0007003e00e20f50001a003200e20f500049
:10188c0025003e00e10f50000a00320070003700c6
:10189c00e60f500047003200e60f500038003900c8
:1018ac00e70f500050003200e80f50005b00320090
:1018bc0067003700303380000040780061406000e2
:1018cc000004a200614060000080fb006100600029
:1018dc00313380000100a10001007000303388001a
:1018ec005b003700303380000000d10061406000a5
:1018fc000004a200614060000080fb0061006000f9
:10190c0000004000313380000110a1000100700084
:10191c00303388004e003700303380004200de0048
:10192c00614060000004a200614060000080fb0088
:10193c00610060004200dd00313380000120a10015
:10194c0001007000303388004100370030338000d4
:10195c004300de00614060000004a20061406000b2
:10196c000080fb00610060004300dd00313380002b
:10197c000130a100010070003033880034003700c2
:10198c00303380004400de00614060000004a2009f
:10199c00614060000080fb00610060004400dd00dd
:1019ac00313380000140a100010070003033880009
:1019bc0027003700303380004500de0061406000b6
:1019cc000004a200614060000080fb006100600028
:1019dc004500dd00313380000150a1000100700092
:1019ec00303388001a003700303380004600de00a8
:1019fc00614060000004a200614060000080fb00b8
:101a0c00610060004600dd00313380000160a10000
:101a1c0001007000303388000d0037003033800037
:101a2c004700de00614060000004a20061406000dd
:101a3c000080fb00610060004700dd003133800056
:101a4c000170a1000100700030338800000000001c
:101a5c000080fa00000006000200fa00000f780077
:101a6c001e007800e40f50002a003200e40f5000f2
:101a7c0007003e00e20f500016003200e20f50004b
:101a8c001c003e00e10f50000a0032004c003700f1
:101a9c00e60f50002f003200e60f500025003900f1
:101aac00e70f500034003200e80f50003b003200ca
:101abc0043003700303380006100600000f0a70065
:101acc000000ea000000ea004f00de000040780051
:101adc003c003700303380006200600000f0a7004b
:101aec000000ea000000ea004f00de000040780031
:101afc0034003700303380006400600000f0a70031
:101b0c000000ea000000ea004f00de000040780010
:101b1c002c003700303380006800600000f0a70014
:101b2c000000ea000000ea004f00de0000407800f0
:101b3c0024003700303380007000600000f0a700f4
:101b4c000000ea000000ea004f00de0000407800d0
:101b5c001c00370031338000000220000080600040
:101b6c0000f0a7000000ea000000ea004f00de00d1
:101b7c00004078001300370031338000000420004f
:101b8c000080600000f0a7000000ea000000ea00fe
:101b9c004f00de00004078000a003700313380002f
:101bac00000820000080600000f0a7000000ea00a0
:101bbc000000ea004f00de00004078000100370012
:101bcc000040eb000080fa00000006000200fa0062
:101bdc00000f78001e007800e40f5000180032004f
:101bec00e40f500007003e00e20f500010003200de
:101bfc00e20f500010003e00e10f50000a003200ce
:101c0c0019003700e60f500011003200e60f5000ab
:101c1c000d003900e70f50000f003200e80f5000a4
:101c2c000f003200100037006206a9000e003700ca
:101c3c006226a9000c0037006246a9000a00370092
:101c4c006266a900080037006286a900060037000a
:101c5c0062a6a9000400370062c6a9000200370082
:101c6c0062e6a900000000000080fa0000000600f7
:101c7c000400fa00100798001e009000e40f5000ba
:101c8c0004003200e50f50000400320000c0eb00ed
:101c9c0010003700000000000100370000000000b9
:101cac001e0090000d000700d1cc2c000100b800e4
:101cbc004308de00004f780040c6b3009e40780019
:101ccc0080cf50000200360040c6b300004f7800b1
:101cdc001e4078000080fa00000006000400fa00a4
:101cec00100798001e009000e40f50000400320012
:101cfc00e50f5000040032000080eb001f0037009d
:101d0c000000000001003700000000009e00900061
:101d1c00613a88004627a8000000eb00000f78000d
:101d2c0002003700000000001e0fe800703e20008b
:101d3c009e007800808f5000faff36004627a900dd
:101d4c000000eb00000f78000200370000000000dc
:101d5c001e0fe800703e20009e007800808f50001f
:101d6c00faff360000000000303a8000610060008d
:101d7c000000e000fcff3200903880000080fa0088
:101d8c00000006000200fa00000f78001e00780028
:101d9c00e40f500003003200e50f500004003a003d
:101dac007ea6a8007e86a80010c0b30001003700f4
:101dbc000040eb000080fa00000006000200fa0070
:101dcc00000f78001e0078000000e0001a003a00b6
:101ddc00413a8000f0ff230000806000403a880008
:101dec0000c0eb004ae7b700313a8000f0f02f005a
:101dfc0000806000303a8800513a8000f00f2e00cd
:101e0c000080600000c0a000503a8800313a800089
:101e1c00f0cf2f0000806000303a8800413a8000fb
:101e2c0030f82f0000806000403a880047e7a80097
:101e3c0010c0b300010037000040eb000080fa0036
:101e4c00000006000400fa00100798000040eb00a8
:101e5c00004f7800110037001e80fb006a00b900ab
:101e6c0080007800408020000080400090007800c6
:101e7c001e009000808f500007003a001e80fb006f
:101e8c006a00b9008000780040802000008040008b
:101e9c008000eb00010878001e4fe8001e4078001f
:101eac00e94f5000ecff36000080fa0000000600fd
:101ebc000800fa00100798002207980033079800d2
:101ecc0002c8bf000004a2000004e00002003200bf
:101edc000040eb00280037000040eb00004f78007a
:101eec00210037001e80fb006a00b90080007800da
:101efc004080200000804000100078000000e000ce
:101f0c0018003a001e80fb006a00b90080007800bf
:101f1c0040802000008040009e0090000108780066
:101f2c001e80fb006a00b9008000780060802000f1
:101f3c00008040002e019000be0190000288be007f
:101f4c001e80fb006a00b90080007800a080200091
:101f5c00008140006000b8000089be0010c0b300d2
:101f6c00050037001e4fe8001e407800e94f500076
:101f7c00dcff36000040eb000080fa000000060099
:101f8c000200fa00000f78001e0078000000e0004c
:101f9c0003003200e10f500015003200180037002a
:101fac00420620008000eb004080200070f9070002
:101fbc006105800080ff2f00008060000000a00001
:101fcc00600588008900a9009a21ef0000e8230031
:101fdc00f00c880000002a00100d88009900a80061
:101fec0010c0b30002e8b70010c0b3000500370002
:101ffc009900a9000268ef0010c0b300010037007f
:10200c000040eb000080fa00000006000000fa001f
:10201c00f5e3a9008920a9009920a900f463a9007f
:10202c00f583a900f543a800f523a900f4c3a90082
:10203c00f503a800f4a3a80040002000202088008d
:10204c00f623ef00c13d800000fc2f0000806000f3
:10205c00a001b300c03d8800313f8000f00f280084
:10206c00808060000070200001007000303f88000c
:10207c00413f8000f00f28000080600000b0a000fd
:10208c00403f88007e26a9007626a9007a26a80063
:10209c00f5e3a8000080fa00000006000800fa0032
:1020ac001007980021079800320798007a26a9009b
:1020bc0000fa200001002000840007000000eb0063
:1020cc00000f7800120037001e007800000040005e
:1020dc009e009000008040001000780000208800d6
:1020ec0000000000e01f8000610060000000e000c4
:1020fc00fcff32001e00780000004000ae00900093
:10210c000080400001208000010878001e0fe800cc
:10211c003e0090009e007800808f5000eaff39004e
:10212c007a26a8000080fa00000006001000fa00d1
:10213c00b6ff070040232100000f780070562400e2
:10214c0010079800402321002007980070562400a7
:10215c003007980000902000d10320005b0007009e
:10216c006800470042002000800078000e007800d4
:10217c00caff070000902000d10320005300070085
:10218c00f4ff37000200fa00000f78001e00780000
:10219c00e20f500013003200e20f500003003e002b
:1021ac00e10f50000600320029003700e30f500009
:1021bc0015003200e40f50001c00320024003700e0
:1021cc0001358000000420000080600000f0a700b2
:1021dc000000ea000000e9004f00de00004078003b
:1021ec001c003700013580000008200000806000d2
:1021fc0000f0a7000000ea000000e9004f00de003c
:10220c0000407800130037002133800000082000c4
:10221c000080600000f0a7000000ea000000e90068
:10222c004f00de00004078000a00370001358000c6
:10223c00000022000080600000f0a7000000ea000f
:10224c000000e9004f00de0000407800010037007c
:10225c000040eb000080fa00000006000200fa00cb
:10226c00000f78001e007800e20f50000d003200c5
:10227c00e20f500003003e00e10f50000600320058
:10228c0010003700e30f500009003200e40f50003b
:10229c000a0032000b0037009ec6a800a6c6a90093
:1022ac00080037009ee6a800a6e6a9000500370046
:1022bc0062e6a8006ae6a900020037009fa6a80003
:0c22cc00000000000080fa000000060086
:020000040000fa
:1022d800f03fb1000180b10006003500ee030900af
:1022e80000000000403fb1000180b100fbff3d004d
:1022f8001000b000203fb000020035000080090047
:082308000000000000000600c7
:020000040000fa
:102310000008000002000000800000000408000027
:1023200064000000800000000208000002000000bd
:08233000800000000000000025
:020000040000fa
:020000040015e5
:047e0000ffffff0081
:020000040000fa
:020000040015e5
:047e2000ff1f000040
:020000040000fa
:020000040015e5
:047e3000f8ffff0058
:020000040000fa
:020000040015e5
:047e3800bfffff0089
:020000040000fa
:020000040015e5
:047e4000ffffff0041
:020000040000fa
:020000040015e5
:047e4800ffffff0039
:020000040000fa
:020000040015e5
:047e5000dfffff0051
:020000040000fa
:020000040015e5
:047e5800ffffff0029
:00000001FF
