:020000040000fa
:080000000001040000000000f3
:020000040000fa
:0400080022030000cf
:020000040000fa
:04000c0022030000cb
:020000040000fa
:0400100022030000c7
:020000040000fa
:0400140022030000c3
:020000040000fa
:0400180022030000bf
:020000040000fa
:04001c0022030000bb
:020000040000fa
:0400200022030000b7
:020000040000fa
:0400240022030000b3
:020000040000fa
:0400280022030000af
:020000040000fa
:04002c0022030000ab
:020000040000fa
:0400300022030000a7
:020000040000fa
:0400340004020000c2
:020000040000fa
:04003800220300009f
:020000040000fa
:04003c00220300009b
:020000040000fa
:040040002203000097
:020000040000fa
:040044002203000093
:020000040000fa
:04004800220300008f
:020000040000fa
:04004c00220300008b
:020000040000fa
:040050002203000087
:020000040000fa
:040054002203000083
:020000040000fa
:04005800220300007f
:020000040000fa
:04005c004802000056
:020000040000fa
:040060002203000077
:020000040000fa
:040064002203000073
:020000040000fa
:04006800220300006f
:020000040000fa
:04006c00220300006b
:020000040000fa
:040070002203000067
:020000040000fa
:040074002203000063
:020000040000fa
:04007800220300005f
:020000040000fa
:04007c00220300005b
:020000040000fa
:040080002203000057
:020000040000fa
:040084002203000053
:020000040000fa
:04008800220300004f
:020000040000fa
:04008c00220300004b
:020000040000fa
:040090002203000047
:020000040000fa
:040094002203000043
:020000040000fa
:04009800220300003f
:020000040000fa
:04009c00220300003b
:020000040000fa
:0400a0002203000037
:020000040000fa
:0400a4002203000033
:020000040000fa
:0400a800220300002f
:020000040000fa
:0400ac00220300002b
:020000040000fa
:0400b0002203000027
:020000040000fa
:0400b4002203000023
:020000040000fa
:0400b800220300001f
:020000040000fa
:0400bc00220300001b
:020000040000fa
:0400c0002203000017
:020000040000fa
:0400c4002203000013
:020000040000fa
:0400c800220300000f
:020000040000fa
:0400cc00220300000b
:020000040000fa
:0400d0002203000007
:020000040000fa
:0400d4002203000003
:020000040000fa
:0400d80022030000ff
:020000040000fa
:0400dc0022030000fb
:020000040000fa
:0400e00022030000f7
:020000040000fa
:0400e40022030000f3
:020000040000fa
:0400e80022030000ef
:020000040000fa
:0400ec0022030000eb
:020000040000fa
:0400f00022030000e7
:020000040000fa
:0400f40022030000e3
:020000040000fa
:0400f80022030000df
:020000040000fa
:0400fc0022030000db
:020000040000fa
:0401000022030000d6
:020000040000fa
:0401040022030000d2
:020000040000fa
:0401080022030000ce
:020000040000fa
:04010c0022030000ca
:020000040000fa
:040110009802000051
:020000040000fa
:0401140022030000c2
:020000040000fa
:0401180022030000be
:020000040000fa
:04011c0022030000ba
:020000040000fa
:0401200022030000b6
:020000040000fa
:0401240022030000b2
:020000040000fa
:0401280022030000ae
:020000040000fa
:04012c0022030000aa
:020000040000fa
:0401300022030000a6
:020000040000fa
:0401340022030000a2
:020000040000fa
:04013800220300009e
:020000040000fa
:04013c00220300009a
:020000040000fa
:040140002203000096
:020000040000fa
:040144002203000092
:020000040000fa
:04014800220300008e
:020000040000fa
:04014c00220300008a
:020000040000fa
:040150002203000086
:020000040000fa
:040154002203000082
:020000040000fa
:04015800220300007e
:020000040000fa
:04015c00220300007a
:020000040000fa
:040160002203000076
:020000040000fa
:040164002203000072
:020000040000fa
:04016800220300006e
:020000040000fa
:04016c00220300006a
:020000040000fa
:040170002203000066
:020000040000fa
:040174002203000062
:020000040000fa
:04017800220300005e
:020000040000fa
:04017c00220300005a
:020000040000fa
:040180002203000056
:020000040000fa
:040184002203000052
:020000040000fa
:04018800220300004e
:020000040000fa
:04018c00220300004a
:020000040000fa
:040190002203000046
:020000040000fa
:040194002203000042
:020000040000fa
:04019800220300003e
:020000040000fa
:04019c00220300003a
:020000040000fa
:0401a0002203000036
:020000040000fa
:0401a4002203000032
:020000040000fa
:0401a800220300002e
:020000040000fa
:0401ac00220300002a
:020000040000fa
:0401b0002203000026
:020000040000fa
:0401b4002203000022
:020000040000fa
:0401b800220300001e
:020000040000fa
:0401bc00220300001a
:020000040000fa
:0401c0002203000016
:020000040000fa
:0401c4002203000012
:020000040000fa
:0401c800220300000e
:020000040000fa
:0401cc00220300000a
:020000040000fa
:0401d0002203000006
:020000040000fa
:0401d4002203000002
:020000040000fa
:0401d80022030000fe
:020000040000fa
:0401dc0022030000fa
:020000040000fa
:0401e00022030000f6
:020000040000fa
:0401e40022030000f2
:020000040000fa
:0401e80022030000ee
:020000040000fa
:0401ec0022030000ea
:020000040000fa
:0401f00022030000e6
:020000040000fa
:0401f40022030000e2
:020000040000fa
:0401f80022030000de
:020000040000fa
:0401fc0022030000da
:020000040000fa
:10020000ef8020000e7f24000e0188000000000017
:10021000000020000000e000020032000001200089
:100220002002880014000700080107000000e00019
:1002300003003a00a0c720000100200002003700a0
:100240000000200001002000810f7000010032003a
:1002500014000700000020000000e000020032004f
:100260000000020000000000520c0200000000002c
:100270000040da000000fe004440a90020002000f9
:100280000000e00003003200100020009001880010
:100290004440a800000006008a1f78008b1f7800e9
:1002a00000000600a1028800800478000000eb0036
:1002b0001f003700e284440054a0b4009905ba003e
:1002c000e284440054a0b4009906ba00e2844400d9
:1002d00054a0b4000006eb00476fde00fd07b2003b
:1002e000ae018800636ce10003003a00eaff0700fa
:1002f0000000eb000e003700606ce10008003a00df
:10030000004deb000a05e800020039003420ec0043
:100310000af0a0008b05e900f9ff3e000400370059
:100320006168e100010032000086eb000b0007006d
:1003300019c7ba001905ba000e04e00003003a001c
:100340000a00e000dbff3a0000000600fe07b200f2
:10035000ae0288008a047800f5ff37000cd0a300b5
:10036000e20f4d001c00390089027800354dba00bb
:100370000a05e800020039003420ec000af0a00071
:100380008b05e9000f003200254dba000a05e80090
:10039000020039003420ec000af0a0008b05e900cf
:1003a000080032000c00e0000600320015cdba0053
:1003b0000a05e800020039003420ec000af0a00031
:1003c0008b05e9008984e80054a0b4000b00e0002c
:1003d000e2ff3a00000006009902ba00055d7800cd
:1003e0008b05e900f7ff3200c82ade00055d7800c2
:1003f0008b05e900f3ff32000c00e000f1ff320052
:1004000019ddba00eeff37003600f800809fbe000d
:10041000829fbe00849fbe00869fbe003200f8000f
:100420003400f80010002000a00188001000200017
:10043000900188000400fa0010c0b300004f78005b
:1004400050c0b300104798000040eb0020479800d0
:100450001e0078009e009000be0407004647a800da
:1004600010c0b30000e8b7008860a9000080fa005f
:100470003400f9003200f9004f03be004f02be0005
:100480004f01be004f00be003600f90000400600dc
:100490003600f800809fbe00829fbe00849fbe0091
:1004a000869fbe003200f8003400f80010002000e3
:1004b000a001880010002000900188000600fa00ca
:1004c0004647a90091388000010f7800a1388000cc
:1004d000110798001e0078006101b8001e0090000e
:1004e0008000eb0002004000838048008100d100c2
:1004f0000080d30020079800ae00900041408800a3
:1005000080802000ec04070089a0a9000080fa0088
:100510003400f9003200f9004f03be004f02be0064
:100520004f01be004f00be003600f900004006003b
:10053000809fbe003200f8003400f8001000200058
:10054000a001880010002000900188000400fa003b
:1005500001208000010f78001e00780021aa2a00e7
:10056000810f50001c00320021aa2a00810f500088
:1005700006003e000000e0001d00320011aa2a0023
:10058000810f5000110032001c00370011dd2d00da
:10059000810f50000700320021dd2d00810f500037
:1005a0000700320041aa2a00810f50000d003200de
:1005b0001200370040408000002088001100370002
:1005c00060408000002088000e003700104080004e
:1005d000002088000b0037002040800000208800a9
:1005e00008003700304080000020880005003700f8
:1005f000205524000020880002003700b0f42400b9
:1006000000208800e11f80000004200000806000be
:100610000000e0000500320000208000004078006b
:10062000204798002e409000fcc3a9008f40a900ed
:100630000080fa003400f9003200f9004f00be00db
:10064000004006000040da000000fe000000050047
:020000040000fa
:100650000200fa00000f780000000000c0208000b7
:10066000620060000000e000fcff3a009e0078009d
:10067000e120880000000000c020800061006000d0
:100680000000e000fcff3200e02080000080fa0063
:10069000000006001400fa0000e92100000f7800b5
:1006a00010c0b3001057980030c0b3002057980016
:1006b0000040eb00305798001e5090000080fb0077
:1006c000ae5090008180fb00c808dd008100700002
:1006d0000000eb0001007800be5090008181fb001b
:1006e0008000eb00f20f20000281610003f02f0078
:1006f00083806000810071000041eb00e803070087
:100700001e007800d2ff070010c0b300604f9800b1
:1007100030c0b300704f98000040eb0000579800c5
:1007200012c0b3007e0090008e089000dc0307002a
:1007300070042200000f780010c0b300304f980002
:1007400030c0b300404f98000040eb00504f98007d
:100750003e4890000080fb00ce4890008180fb0066
:10076000c808dd00810070000000eb000100780087
:10077000de4890008181fb008000eb00f20f20003a
:100780000281610003f02f0083806000810071000e
:100790000041eb00c20307001e007800acff070019
:1007a00010c0b300004f980030c0b300104f980045
:1007b0000040eb00204f980012c0b3004e009000a4
:1007c000de009000b603070000302200000f780022
:1007d00010c0b3005047980030c0b3006047980085
:1007e0000040eb00704798005e4090000080fb00e6
:1007f000ee4090008180fb00c808dd0081007000a1
:100800000000eb0001007800fe4090008181fb00b9
:100810008000eb00f20f20000281610003f02f0046
:1008200083806000810071000041eb009c030700a1
:100830001e00780086ff070010c0b3002047980014
:1008400030c0b300304798000040eb0040479800ac
:1008500012c0b3001e009000ae009000900307008d
:100860000080fa00000006002c00fa0050179800e3
:1008700000802200000f78001e00780000f0a00029
:100880001007980010c0b3007067980030c0b30024
:10089000006f98000040eb00106f98007e609000a1
:1008a0000080fb008e6890008180fb00c808dd009e
:1008b000810070000000eb00010078009e6890004d
:1008c0008181fb008000eb00f20f200002816100bb
:1008d00003f02f0083806000810071000041eb0075
:1008e0006f0307001e00900059ff07004047980063
:1008f00010c0b3004067980030c0b3005067980044
:100900000040eb006067980012c0b3002e1090000a
:10091000be109000620307001e0090000010b0009f
:100920001007980010c0b3001067980030c0b300e3
:10093000206798000040eb00306798001e60900030
:100940000080fb00ae6090008180fb00c808dd00e5
:10095000810070000000eb0001007800be60900094
:100960008181fb008000eb00f20f2000028161001a
:1009700003f02f0083806000810071000041eb00d4
:10098000470307001e00900031ff07005047980002
:1009900010c0b300605f980030c0b300705f980073
:1009a0000040eb000067980012c0b3007e08900082
:1009b0008e1090003a0307005e4090000000fb009c
:1009c000c800dd004e4090000000fb008100700078
:1009d0005e109000010878001e0090000010b0002a
:1009e0001007980010c0b300305f980030c0b3000b
:1009f000405f98000040eb00505f98003e58900028
:100a00000080fb00ce5890008180fb00c808dd000c
:100a1000810070000000eb0001007800de589000bb
:100a20008181fb008000eb00f20f20000281610059
:100a300003f02f0083806000810071000041eb0013
:100a4000170307001e00900001ff070040479800b1
:100a500010c0b300005f980030c0b300105f980072
:100a60000040eb00205f980012c0b3004e089000d9
:100a7000de0890000a0307001e0090000010b0007e
:100a80001007980010c0b3005057980030c0b30052
:100a9000605798000040eb00705798005e5090003f
:100aa0000080fb00ee5090008180fb00c808dd0054
:100ab000810070000000eb0001007800fe50900003
:100ac0008181fb008000eb00f20f200002816100b9
:100ad00003f02f0083806000810071000041eb0073
:100ae000ef0207001e009000d9fe07005047980053
:100af00010c0b3002057980030c0b30030579800a2
:100b00000040eb004057980012c0b3001e08900050
:100b1000ae089000e20207005e4090000000fb007b
:100b2000c800dd004e4090000000fb008100700016
:100b30005e109000110098001e0090000010b000a0
:100b40001007980010c0b300704f980030c0b30079
:100b5000005798000040eb00105798007e48900026
:100b60000080fb008e5090008180fb00c808dd00f3
:100b7000810070000000eb00010078009e509000a2
:100b80008181fb008000eb00f20f200002816100f8
:100b900003f02f0083806000810071000041eb00b2
:100ba000bf0207001e009000a9fe07004047980002
:100bb00010c0b300404f980030c0b300504f9800b1
:100bc0000040eb00604f980012c0b3006e00900030
:100bd000fe009000b20207001e0090000010b0005e
:100be0001007980010c0b300104f980030c0b30039
:100bf000204f98000040eb00304f98001e489000b6
:100c00000080fb00ae4890008180fb00c808dd003a
:100c1000810070000000eb0001007800be489000e9
:100c20008181fb008000eb00f20f20000281610057
:100c300003f02f0083806000810071000041eb0011
:100c4000970207001e00900081fe070050479800a1
:100c500010c0b3006047980030c0b30070479800e0
:100c60000040eb00004f980012c0b3003e0090001f
:100c7000ce0090008a0207005e4090000000fb005a
:100c8000c800dd004e4090000000fb0081007000b5
:100c90005e109000210098000080fa00000006001d
:100ca0000400fa00000f7800110798007961a9008c
:100cb0009e007800a10c88009e009000910c880096
:100cc0009021ef000080fa00000006000c00fa00fe
:100cd000000f78001107980022079800330798004a
:100ce00044079800550798007801a9009e007800f5
:100cf000313a88009e009000413a8800ae00900092
:100d0000513a8800be009000613a8800ce00900001
:100d1000813a88005e0090000040780061406000e9
:100d20000080fb00610060004a00dd00313a800075
:100d300001a0a10001007000303a880047e7a80038
:100d40000080fa00000006000c00fa00000f780096
:100d5000110798002207980033079800440798006d
:100d6000254f98002e489000e74f500002003600b3
:100d700070c0b300204f98001e0078009e007800dd
:100d800011017800ce4090008180fb00130020000c
:100d90008118dd008180ea0081006100010878008f
:100da0003e009000be009000110178008e48900037
:100db0008180fb00130020008118dd008180ea00a3
:100dc00001016100ae4890008180fb00e481600079
:100dd0008e4890008180fb008118dd0082807000c9
:100de000010878003e009000be00900011017800dc
:100df0008e4890008180fb008100e90013002000f4
:100e00008118dd008180ea0001016100ae48900098
:100e10008180fb00e28160008e4890008180fb00b1
:100e20008100e9008118dd008280700001087800ef
:100e30003e009000be009000110178008e489000a6
:100e40008180fb008180e900130020008118dd0013
:100e50008180ea0001016100ae4890008180fb00c2
:100e6000e18160008e4890008180fb008180e90074
:100e70008118dd0082807000010878001e0090005b
:100e80009e00900011017800ce4090008180fb0010
:100e9000130020008118dd008180ea00010161005b
:100ea000ce4090008180fb00130020008118dd00ff
:100eb00082807000010878000080fa0000000600bf
:100ec0000a00fa00000f7800110798002207980026
:100ed00033079800440798009e00780001088800b6
:100ee0009e00900031088800ae0090001108880034
:100ef000be00900061088800ce0090007108880054
:100f00000080fa00000006000a00fa0010079800ae
:100f10002107980032079800430798007861a900dc
:100f20009f40a9008f40a9009940a9008940a900cd
:100f3000f5e3a900f5a3a900f423ef00f623ef00e1
:100f4000f823ef00f623ef004e00900000407800f9
:100f5000f043b2008080fb00f003200000806000be
:100f6000c23d800001fc2f00810061000100700083
:100f7000c03d8800113f800000f82f000080600015
:100f80007000b300103f88001e0090000040780001
:100f9000f043b2008080fb00f0032000008060007e
:100fa0004800dd00c23d8000f10f2c00810061008f
:100fb00001007000c03d88002e00900000407800c5
:100fc000f043b2008080fb00f0032000008060004e
:100fd000d23d800001fc2f00810061000100700003
:100fe000d03d88000200370000208000000f78000c
:100ff000e01f8000610060000000e000faff3a009e
:10100000fcc3a900f403a9000804a800f4a3a900e4
:10101000f4e3a800f4c3a900f503a800f523a90090
:10102000f563a900f543a800f5e3a8000080fa00e5
:10103000000006000a00fa00100798002107980037
:1010400032079800430798007881a9009f60a900a3
:101050008f60a90011e4a90011a4a9001024ef00d9
:101060001224ef001424ef001224ef003e00900041
:1010700000407800f043b2008080fb00f0032000c5
:1010800000806000e23d800001fc2f0081006100d3
:1010900001007000e03d8800d13e800000f82f0084
:1010a00000806000a000b300d03e8800d13e8000e8
:1010b000f00f28008080600000b020000100700068
:1010c000d03e8800b13e8000f00f28008080600094
:1010d00000c0200001007000b03e88000200370010
:1010e00000208000000f7800c020800061006000b8
:1010f0000000e000faff3a0018c4a9001004a9009b
:101100002404a80010a4a90010e4a80010c4a90099
:101110001104a8001124a9001164a9001144a80019
:1011200011e4a8000080fa00000006004000fa0068
:1011300010c0b300407f980050c0b300507f9800ab
:101140000040eb00607f98000041eb006e189000bb
:10115000fe1890000701070010c0b300107f980030
:1011600050c0b300207f98000040eb00307f980013
:101170001e7890000080fb00ae7890008180fb001c
:10118000c808dd00810070000000eb00010078005d
:10119000be7890008181fb008000eb00f20f200000
:1011a0000281610003f02f008380600081007100e4
:1011b00012c0b3003a01070010c0b3006077980076
:1011c000c0c0b300707798000040eb00007f98002b
:1011d00012c0b3003e189000ce189000e500070042
:1011e00010c0b30030779800d0c0b30040779800ab
:1011f0000040eb00507798003e7090000080fb00ac
:10120000ce7090008180fb00c808dd008100700076
:101210000000eb0001007800de7090008181fb008f
:101220008000eb00f20f20000281610003f02f002c
:10123000838060008100710012c0b300cd00070000
:1012400010c0b30000779800e0c0b300107798009a
:101250000040eb00207798000041eb000e18900052
:101260009e189000c300070010c0b300506f980094
:10127000f0c0b300606f98000040eb00706f980002
:101280005e6890000080fb00ee6890008180fb00ab
:10129000c808dd00810070000000eb00010078004c
:1012a000fe6890008181fb008000eb00f20f2000bf
:1012b0000281610003f02f008380600081007100d3
:1012c00012c0b300ab000700f3002000e2002000d2
:1012d000c1002000d00020000bff070010c0b300a9
:1012e000206f980020c0b300306f98000040eb00e2
:1012f000406f980012c0b3005e109000ee10900096
:101300009c00070010c0b3007067980060c0b30075
:10131000006f98000040eb00106f98007e60900016
:101320000080fb008e6890008180fb00c808dd0013
:10133000810070000000eb00010078009e689000c2
:101340008181fb008000eb00f20f20000281610030
:1013500003f02f0083806000810071000041eb00ea
:101360008400070010c0b3004067980070c0b3004d
:10137000506798000040eb00606798000041eb0068
:101380002e109000be1090007a00070010c0b3002d
:101390001067980030c0b300206798000040eb0051
:1013a000306798001e6090000080fb00ae609000e7
:1013b0008180fb00c808dd00810070000000eb00a8
:1013c00001007800be6090008181fb008000eb008e
:1013d000f20f20000281610003f02f008380600083
:1013e000810071000041eb006200070063002000f3
:1013f0002200200031002000700020000dff0700b7
:10140000a4fc07000040eb00605f980010c0b30030
:10141000705f980010c0b3000067980012c0b3005e
:101420007e0890008e1090005200070015002000ea
:101430000002eb001300200002f020004100200019
:101440000007200021fe0700008020005040880097
:101450000002eb00530020000001eb008000eb00d5
:101460000000eb0096fe0700a1002000000328000a
:101470000bfe070080082000200f98008009200044
:10148000300f9800d0c0b300005f9800e00a200041
:10149000500f980060c0b300405f980075c0b30063
:1014a0002e089000be0890004e099000de099000c2
:1014b0006e0a900024fe0700800820005007980064
:1014c000800920006007980030c0b300604f98008a
:1014d000800a2000000f9800e0c0b3002057980059
:1014e00065c0b3005e009000ee0090007e019000a9
:1014f0008e0990001e0a900013fe0700e0082000ed
:10150000000f7800e009200010079800a0c0b30089
:1015100040479800400c200030079800a0c0b3005e
:10152000004f980045c0b3001e0078009e00900058
:101530002e019000be0190004e02900002fe0700b6
:1015400083e0a8000080fa00000006000000fa0016
:101550000140fe0000c8bf000004e00003003200ac
:1015600020802000c0fc07000068ef000080fa0027
:10157000000006000600fa00000f7800110798002e
:10158000424798001e4078000080fb000000e00009
:1015900003003200e10f5000200032003e0037000f
:1015a0001e4090000080fb00110020000008dd00bc
:1015b0000080ea00800078001033800080806000a6
:1015c0004e4090000081fb001e4090000080fb0018
:1015d0000010dd0001007000103388001e409000f4
:1015e0000080fb00110020000008dd000080ea0000
:1015f0008000780050338000808060002e40900092
:101600000081fb001e4090000080fb000010dd0008
:1016100001007000503388001f0037001e4090000a
:101620000080fb00110020000008dd000080ea00bf
:1016300080007800b0338000808060004e409000d1
:101640000081fb001e4090000080fb000010dd00c8
:1016500001007000b03388001e4090000080fb0045
:10166000110020000008dd000080ea008000780002
:10167000f0338000808060002e4090000081fb00ed
:101680001e4090000080fb000010dd000100700093
:10169000f0338800000000000080fa00000006001f
:1016a0000600fa00000f78001107980042479800e2
:1016b0001e4078000080fb000000e00003003200c4
:1016c000e10f500011003200200037001e40900052
:1016d0000080fb00110020000008dd000080ea000f
:1016e0008000780030338000808060004e409000a1
:1016f0000081fb001e4090000080fb000010dd0018
:101700000100700030338800100037001e40900048
:101710000080fb00110020000008dd000080ea00ce
:1017200080007800d0338000808060004e409000c0
:101730000081fb001e4090000080fb000010dd00d7
:1017400001007000d0338800000000000080fa0023
:10175000000006000400fa00000f7800110798004e
:101760001e4078000080fb000000e0000300320013
:10177000e10f5000180032002e0037001e4090008c
:101780000080fb00110020000008dd000080ea005e
:101790008000780030338000808060003233800029
:1017a0001e4090000080fb000010de006100600021
:1017b00000f0a7000000ea000000e9004f00de0092
:1017c0001e4190000281fb000200dd00010070005c
:1017d00030338800170037001e4090000080fb0067
:1017e000110020000008dd000080ea008000780081
:1017f000d033800080806000d23380001e40900093
:101800000080fb000010de006100600000f0a70017
:101810000000ea000000e9004f00de001e419000d9
:101820000281fb000200dd0001007000d03388005f
:10183000000000000080fa00000006000000fa002e
:1018400083e0a9006a26ef007e26ef006226ef0003
:101850007626ef006626ef007a26ef000080eb0088
:10186000c00b88000080eb00d00b88000080eb00ec
:10187000e00b88000080eb00f00b88000080eb009c
:10188000000c88000080eb00100c88000080eb004a
:10189000200c88000080eb00300c88000080fa00eb
:1018a000000006000000fa00e4ff07001ffe07002a
:1018b00026ff0700feff37000200fa00000f780045
:1018c0001e007800900078001e0078001000900044
:1018d000808f5000050031001e007800200090002d
:1018e0008000e8001e007800210098000080fa00c7
:0418f00000000600ee
:020000040000fa
:1018f400020800000600000080000000000800004c
:10190400020000008000000008080000060000003b
:0819140080000000000000004b
:00000001FF
