:020000040000fa
:080000000001040000000000f3
:020000040000fa
:040008002e020000c4
:020000040000fa
:04000c002e020000c0
:020000040000fa
:040010002e020000bc
:020000040000fa
:040014002e020000b8
:020000040000fa
:040018002e020000b4
:020000040000fa
:04001c002e020000b0
:020000040000fa
:040020002e020000ac
:020000040000fa
:040024002e020000a8
:020000040000fa
:040028002e020000a4
:020000040000fa
:04002c002e020000a0
:020000040000fa
:040030002e0200009c
:020000040000fa
:040034002e02000098
:020000040000fa
:040038002e02000094
:020000040000fa
:04003c002e02000090
:020000040000fa
:040040002e0200008c
:020000040000fa
:040044002e02000088
:020000040000fa
:040048002e02000084
:020000040000fa
:04004c0004020000aa
:020000040000fa
:040050002e0200007c
:020000040000fa
:040054002e02000078
:020000040000fa
:040058002e02000074
:020000040000fa
:04005c002e02000070
:020000040000fa
:040060002e0200006c
:020000040000fa
:040064002e02000068
:020000040000fa
:040068002e02000064
:020000040000fa
:04006c002e02000060
:020000040000fa
:040070002e0200005c
:020000040000fa
:040074002e02000058
:020000040000fa
:040078002e02000054
:020000040000fa
:04007c002e02000050
:020000040000fa
:040080002e0200004c
:020000040000fa
:040084002e02000048
:020000040000fa
:040088002e02000044
:020000040000fa
:04008c002e02000040
:020000040000fa
:040090002e0200003c
:020000040000fa
:040094002e02000038
:020000040000fa
:040098002e02000034
:020000040000fa
:04009c002e02000030
:020000040000fa
:0400a0002e0200002c
:020000040000fa
:0400a4002e02000028
:020000040000fa
:0400a8002e02000024
:020000040000fa
:0400ac002e02000020
:020000040000fa
:0400b0002e0200001c
:020000040000fa
:0400b4002e02000018
:020000040000fa
:0400b8002e02000014
:020000040000fa
:0400bc002e02000010
:020000040000fa
:0400c0002e0200000c
:020000040000fa
:0400c4002e02000008
:020000040000fa
:0400c8002e02000004
:020000040000fa
:0400cc002e02000000
:020000040000fa
:0400d0002e020000fc
:020000040000fa
:0400d4002e020000f8
:020000040000fa
:0400d8002e020000f4
:020000040000fa
:0400dc002e020000f0
:020000040000fa
:0400e0002e020000ec
:020000040000fa
:0400e4002e020000e8
:020000040000fa
:0400e8002e020000e4
:020000040000fa
:0400ec002e020000e0
:020000040000fa
:0400f0002e020000dc
:020000040000fa
:0400f4002e020000d8
:020000040000fa
:0400f8002e020000d4
:020000040000fa
:0400fc002e020000d0
:020000040000fa
:040100002e020000cb
:020000040000fa
:040104002e020000c7
:020000040000fa
:040108002e020000c3
:020000040000fa
:04010c002e020000bf
:020000040000fa
:040110002e020000bb
:020000040000fa
:040114002e020000b7
:020000040000fa
:040118002e020000b3
:020000040000fa
:04011c002e020000af
:020000040000fa
:040120002e020000ab
:020000040000fa
:040124002e020000a7
:020000040000fa
:040128002e020000a3
:020000040000fa
:04012c002e0200009f
:020000040000fa
:040130002e0200009b
:020000040000fa
:040134002e02000097
:020000040000fa
:040138002e02000093
:020000040000fa
:04013c002e0200008f
:020000040000fa
:040140002e0200008b
:020000040000fa
:040144002e02000087
:020000040000fa
:040148002e02000083
:020000040000fa
:04014c002e0200007f
:020000040000fa
:040150002e0200007b
:020000040000fa
:040154002e02000077
:020000040000fa
:040158002e02000073
:020000040000fa
:04015c002e0200006f
:020000040000fa
:040160002e0200006b
:020000040000fa
:040164002e02000067
:020000040000fa
:040168002e02000063
:020000040000fa
:04016c002e0200005f
:020000040000fa
:040170002e0200005b
:020000040000fa
:040174002e02000057
:020000040000fa
:040178002e02000053
:020000040000fa
:04017c002e0200004f
:020000040000fa
:040180002e0200004b
:020000040000fa
:040184002e02000047
:020000040000fa
:040188002e02000043
:020000040000fa
:04018c002e0200003f
:020000040000fa
:040190002e0200003b
:020000040000fa
:040194002e02000037
:020000040000fa
:040198002e02000033
:020000040000fa
:04019c002e0200002f
:020000040000fa
:0401a0002e0200002b
:020000040000fa
:0401a4002e02000027
:020000040000fa
:0401a8002e02000023
:020000040000fa
:0401ac002e0200001f
:020000040000fa
:0401b0002e0200001b
:020000040000fa
:0401b4002e02000017
:020000040000fa
:0401b8002e02000013
:020000040000fa
:0401bc002e0200000f
:020000040000fa
:0401c0002e0200000b
:020000040000fa
:0401c4002e02000007
:020000040000fa
:0401c8002e02000003
:020000040000fa
:0401cc002e020000ff
:020000040000fa
:0401d0002e020000fb
:020000040000fa
:0401d4002e020000f7
:020000040000fa
:0401d8002e020000f3
:020000040000fa
:0401dc002e020000ef
:020000040000fa
:0401e0002e020000eb
:020000040000fa
:0401e4002e020000e7
:020000040000fa
:0401e8002e020000e3
:020000040000fa
:0401ec002e020000df
:020000040000fa
:0401f0002e020000db
:020000040000fa
:0401f4002e020000d7
:020000040000fa
:0401f8002e020000d3
:020000040000fa
:0401fc002e020000cf
:020000040000fa
:100200000f8020000e7f24000e01880000000000f7
:10021000000020000000e000020032000001200089
:1002200020028800140007008e0007000000e00094
:1002300003003a0000002000010020000200370007
:100240000000200001002000810f7000010032003a
:1002500014000700000020000000e000020032004f
:100260000000020000000000160402000000000070
:100270000040da000000fe004440a90020002000f9
:100280000000e00003003200100020009001880010
:100290004440a800000006008a1f78008b1f7800e9
:1002a00000000600a1028800800478000000eb0036
:1002b0001f003700e284440054a0b4009905ba003e
:1002c000e284440054a0b4009906ba00e2844400d9
:1002d00054a0b4000006eb00476fde00fd07b2003b
:1002e000ae018800636ce10003003a00eaff0700fa
:1002f0000000eb000e003700606ce10008003a00df
:10030000004deb000a05e800020039003420ec0043
:100310000af0a0008b05e900f9ff3e000400370059
:100320006168e100010032000086eb000b0007006d
:1003300019c7ba001905ba000e04e00003003a001c
:100340000a00e000dbff3a0000000600fe07b200f2
:10035000ae0288008a047800f5ff37000cd0a300b5
:10036000e20f4d001c00390089027800354dba00bb
:100370000a05e800020039003420ec000af0a00071
:100380008b05e9000f003200254dba000a05e80090
:10039000020039003420ec000af0a0008b05e900cf
:1003a000080032000c00e0000600320015cdba0053
:1003b0000a05e800020039003420ec000af0a00031
:1003c0008b05e9008984e80054a0b4000b00e0002c
:1003d000e2ff3a00000006009902ba00055d7800cd
:1003e0008b05e900f7ff3200c82ade00055d7800c2
:1003f0008b05e900f3ff32000c00e000f1ff320052
:1004000019ddba00eeff3700809fbe003200f80011
:100410003400f80010002000a00188001000200027
:10042000900188000200fa0000208000004f780050
:1004300050c5b3009e40780080cf500002003a00c3
:10044000a00a2000002088000080fa003400f90093
:100450003200f9004f00be00004006000040da0004
:080460000000fe000000050091
:020000040000fa
:100468000400fa00000f7800110798007961a900cc
:100478009e007800a10c88009e009000910c8800d6
:100488009021ef000080fa00000006000c00fa003e
:10049800000f78001107980022079800330798008a
:1004a80044079800550798007801a9009e00780035
:1004b800313a88009e009000413a8800ae009000d2
:1004c800513a8800be009000613a8800ce00900042
:1004d800813a88005e00900000407800614060002a
:1004e8000080fb00610060004a00dd00313a8000b6
:1004f80001a0a10001007000303a880047e7a80079
:100508000080fa00000006000c00fa00000f7800d6
:1005180011079800220798003307980044079800ad
:10052800254f98002e489000e74f500002003600f3
:1005380070c0b300204f98001e0078009e0078001d
:1005480011017800ce4090008180fb00130020004c
:100558008118dd008180ea008100610001087800cf
:100568001e0090009e00900011017800ce4090007f
:100578008180fb00130020008118dd008180ea00e3
:1005880001016100ce4090008180fb001300200033
:100598008118dd0082807000010878003e0090001c
:1005a800be009000110178008e4890008180fb0009
:1005b800130020008118dd008180ea00010161003c
:1005c800ae4890008180fb00e48160008e48900076
:1005d8008180fb008118dd008280700001087800ae
:1005e8003e009000be009000110178008e489000f7
:1005f8008180fb008100e900130020008118dd00e4
:100608008180ea0001016100ae4890008180fb0012
:10061800e28160008e4890008180fb008100e90043
:100628008118dd0082807000010878003e0090008b
:10063800be009000110178008e4890008180fb0078
:100648008180e900130020008118dd008180ea0024
:1006580001016100ae4890008180fb00e1816000eb
:100668008e4890008180fb008180e9008118dd00c0
:1006780082807000010878000080fa0000000600ff
:100688000a00fa00000f7800110798002207980066
:1006980033079800440798009e00780001088800f6
:1006a8009e00900031088800ae0090001108880074
:1006b800be00900061088800ce0090007108880094
:1006c8000080fa00000006000800fa00000f780019
:1006d800110798002207980033079800c00b800084
:1006e8000030a100c00b88002e0090000040780068
:1006f800f043b2008080fb00f0032000008060001f
:10070800c23d800001fc2f008100610001007000e3
:10071800c03d8800113f800000f82f000080600075
:100728007000b300103f88001e0078000040780079
:10073800f043b2008080fb00f003200000806000de
:100748004800dd00c23d8000f10f2c0081006100ef
:1007580001007000c03d88001e0090000040780035
:10076800f043b2008080fb00f003200000806000ae
:10077800d23d800001fc2f00810061000100700063
:10078800d03d8800f5e3a900f7e3a900f563a900c7
:10079800f543a800f4a3a900f523a900f503a800d0
:1007a800f4c3a900f4e3a800fcc3a900f5e3a8007a
:1007b8008920a9009920a8000080fa0000000600fe
:1007c8000000fa006a26ef007e26ef006226ef009e
:1007d8007626ef006626ef007a26ef000080eb0011
:1007e800c00b88000080eb00d00b88000080eb0075
:1007f800e00b88000080eb00f00b88000080eb0025
:10080800000c88000080eb00100c88000080eb00d2
:10081800200c88000080eb00300c88000080fa0073
:10082800000006000000fa00e5ff070002000700cc
:100838000f000700feff37000000fa00e300200069
:10084800f2002000c1002000d00020009eff070019
:100858000002eb00530020000001eb008000eb00d9
:100868000000eb0086ff07000080fa000000060089
:0c0878000000fa000080fa0000000600fa
:00000001FF
