:020000040000fa
:080000000001040000000000f3
:020000040000fa
:04000800660200008c
:020000040000fa
:04000c006602000088
:020000040000fa
:040010006602000084
:020000040000fa
:040014006602000080
:020000040000fa
:04001800660200007c
:020000040000fa
:04001c006602000078
:020000040000fa
:040020006602000074
:020000040000fa
:040024006602000070
:020000040000fa
:04002800660200006c
:020000040000fa
:04002c006602000068
:020000040000fa
:040030006602000064
:020000040000fa
:040034006602000060
:020000040000fa
:04003800660200005c
:020000040000fa
:04003c006602000058
:020000040000fa
:040040006602000054
:020000040000fa
:040044006602000050
:020000040000fa
:04004800660200004c
:020000040000fa
:04004c006602000048
:020000040000fa
:040050006602000044
:020000040000fa
:040054006602000040
:020000040000fa
:04005800660200003c
:020000040000fa
:04005c006602000038
:020000040000fa
:040060006602000034
:020000040000fa
:040064006602000030
:020000040000fa
:04006800660200002c
:020000040000fa
:04006c006602000028
:020000040000fa
:040070006602000024
:020000040000fa
:040074006602000020
:020000040000fa
:04007800660200001c
:020000040000fa
:04007c006602000018
:020000040000fa
:040080006602000014
:020000040000fa
:040084006602000010
:020000040000fa
:04008800660200000c
:020000040000fa
:04008c006602000008
:020000040000fa
:040090006602000004
:020000040000fa
:040094006602000000
:020000040000fa
:0400980066020000fc
:020000040000fa
:04009c0066020000f8
:020000040000fa
:0400a00066020000f4
:020000040000fa
:0400a40066020000f0
:020000040000fa
:0400a80066020000ec
:020000040000fa
:0400ac0066020000e8
:020000040000fa
:0400b00066020000e4
:020000040000fa
:0400b40066020000e0
:020000040000fa
:0400b80066020000dc
:020000040000fa
:0400bc0066020000d8
:020000040000fa
:0400c00066020000d4
:020000040000fa
:0400c40066020000d0
:020000040000fa
:0400c80066020000cc
:020000040000fa
:0400cc0066020000c8
:020000040000fa
:0400d00066020000c4
:020000040000fa
:0400d40066020000c0
:020000040000fa
:0400d80066020000bc
:020000040000fa
:0400dc0066020000b8
:020000040000fa
:0400e00066020000b4
:020000040000fa
:0400e40066020000b0
:020000040000fa
:0400e80066020000ac
:020000040000fa
:0400ec0066020000a8
:020000040000fa
:0400f00066020000a4
:020000040000fa
:0400f40066020000a0
:020000040000fa
:0400f800660200009c
:020000040000fa
:0400fc006602000098
:020000040000fa
:040100006602000093
:020000040000fa
:04010400660200008f
:020000040000fa
:04010800660200008b
:020000040000fa
:04010c006602000087
:020000040000fa
:0401100004020000e5
:020000040000fa
:04011400660200007f
:020000040000fa
:04011800660200007b
:020000040000fa
:04011c006602000077
:020000040000fa
:040120006602000073
:020000040000fa
:04012400660200006f
:020000040000fa
:04012800660200006b
:020000040000fa
:04012c006602000067
:020000040000fa
:040130006602000063
:020000040000fa
:04013400660200005f
:020000040000fa
:04013800660200005b
:020000040000fa
:04013c006602000057
:020000040000fa
:040140006602000053
:020000040000fa
:04014400660200004f
:020000040000fa
:04014800660200004b
:020000040000fa
:04014c006602000047
:020000040000fa
:040150006602000043
:020000040000fa
:04015400660200003f
:020000040000fa
:04015800660200003b
:020000040000fa
:04015c006602000037
:020000040000fa
:040160006602000033
:020000040000fa
:04016400660200002f
:020000040000fa
:04016800660200002b
:020000040000fa
:04016c006602000027
:020000040000fa
:040170006602000023
:020000040000fa
:04017400660200001f
:020000040000fa
:04017800660200001b
:020000040000fa
:04017c006602000017
:020000040000fa
:040180006602000013
:020000040000fa
:04018400660200000f
:020000040000fa
:04018800660200000b
:020000040000fa
:04018c006602000007
:020000040000fa
:040190006602000003
:020000040000fa
:0401940066020000ff
:020000040000fa
:0401980066020000fb
:020000040000fa
:04019c0066020000f7
:020000040000fa
:0401a00066020000f3
:020000040000fa
:0401a40066020000ef
:020000040000fa
:0401a80066020000eb
:020000040000fa
:0401ac0066020000e7
:020000040000fa
:0401b00066020000e3
:020000040000fa
:0401b40066020000df
:020000040000fa
:0401b80066020000db
:020000040000fa
:0401bc0066020000d7
:020000040000fa
:0401c00066020000d3
:020000040000fa
:0401c40066020000cf
:020000040000fa
:0401c80066020000cb
:020000040000fa
:0401cc0066020000c7
:020000040000fa
:0401d00066020000c3
:020000040000fa
:0401d40066020000bf
:020000040000fa
:0401d80066020000bb
:020000040000fa
:0401dc0066020000b7
:020000040000fa
:0401e00066020000b3
:020000040000fa
:0401e40066020000af
:020000040000fa
:0401e80066020000ab
:020000040000fa
:0401ec0066020000a7
:020000040000fa
:0401f00066020000a3
:020000040000fa
:0401f400660200009f
:020000040000fa
:0401f800660200009b
:020000040000fa
:0401fc006602000097
:020000040000fa
:100200000f8020000e7f24000e01880000000000f7
:10021000000020000000e000020032000001200089
:100220002002880014000700aa0007000000e00078
:1002300003003a0000002000010020000200370007
:100240000000200001002000810f7000010032003a
:1002500014000700000020000000e000020032004f
:100260000000020000000000da06020000000000aa
:100270000040da000000fe004440a90020002000f9
:100280000000e00003003200100020009001880010
:100290004440a800000006008a1f78008b1f7800e9
:1002a00000000600a1028800800478000000eb0036
:1002b0001f003700e284440054a0b4009905ba003e
:1002c000e284440054a0b4009906ba00e2844400d9
:1002d00054a0b4000006eb00476fde00fd07b2003b
:1002e000ae018800636ce10003003a00eaff0700fa
:1002f0000000eb000e003700606ce10008003a00df
:10030000004deb000a05e800020039003420ec0043
:100310000af0a0008b05e900f9ff3e000400370059
:100320006168e100010032000086eb000b0007006d
:1003300019c7ba001905ba000e04e00003003a001c
:100340000a00e000dbff3a0000000600fe07b200f2
:10035000ae0288008a047800f5ff37000cd0a300b5
:10036000e20f4d001c00390089027800354dba00bb
:100370000a05e800020039003420ec000af0a00071
:100380008b05e9000f003200254dba000a05e80090
:10039000020039003420ec000af0a0008b05e900cf
:1003a000080032000c00e0000600320015cdba0053
:1003b0000a05e800020039003420ec000af0a00031
:1003c0008b05e9008984e80054a0b4000b00e0002c
:1003d000e2ff3a00000006009902ba00055d7800cd
:1003e0008b05e900f7ff3200c82ade00055d7800c2
:1003f0008b05e900f3ff32000c00e000f1ff320052
:1004000019ddba00eeff37003600f800809fbe000d
:10041000829fbe00849fbe00869fbe003200f8000f
:100420003400f80010002000a00188001000200017
:10043000900188000600fa0001208000010f78007a
:10044000500520009e007800808f500002003a0086
:10045000a00a2000002088000040eb002047980000
:100460000040eb00304798000040eb004047980008
:100470001e009000ae00900083010700e11f800085
:1004800000042000008060000000e0000500320051
:100490000020800000407800504798005e409000a7
:1004a000fcc3a9008f40a9000080fa003400f900c5
:1004b0003200f9004f03be004f02be004f01be00e4
:1004c0004f00be003600f900004006000040da0090
:0804d0000000fe000000050021
:020000040000fa
:1004d8000400fa00000f7800110798007961a9005c
:1004e8009e007800a10c88009e009000910c880066
:1004f8009021ef000080fa00000006000c00fa00ce
:10050800000f780011079800220798003307980019
:1005180044079800550798007801a9009e007800c4
:10052800313a88009e009000413a8800ae00900061
:10053800513a8800be009000613a8800ce009000d1
:10054800813a88005e0090000040780061406000b9
:100558000080fb00610060004a00dd00313a800045
:1005680001a0a10001007000303a880047e7a80008
:100578000080fa00000006000c00fa00000f780066
:10058800110798002207980033079800440798003d
:10059800254f98002e489000e74f50000200360083
:1005a80070c0b300204f98001e0078009e007800ad
:1005b80011017800ce4090008180fb0013002000dc
:1005c8008118dd008180ea0081006100010878005f
:1005d8003e009000be009000110178008e48900007
:1005e8008180fb00130020008118dd008180ea0073
:1005f80001016100ae4890008180fb00e481600049
:100608008e4890008180fb008118dd008280700098
:10061800010878003e009000be00900011017800ab
:100628008e4890008180fb008100e90013002000c3
:100638008118dd008180ea0001016100ae48900068
:100648008180fb00e28160008e4890008180fb0081
:100658008100e9008118dd008280700001087800bf
:100668003e009000be009000110178008e48900076
:100678008180fb008180e900130020008118dd00e3
:100688008180ea0001016100ae4890008180fb0092
:10069800e18160008e4890008180fb008180e90044
:1006a8008118dd0082807000010878001e0090002b
:1006b8009e00900011017800ce4090008180fb00e0
:1006c800130020008118dd008180ea00010161002b
:1006d800ce4090008180fb00130020008118dd00cf
:1006e80082807000010878000080fa00000006008f
:1006f8000a00fa00000f78001107980022079800f6
:1007080033079800440798009e0078000108880085
:100718009e00900031088800ae0090001108880003
:10072800be00900061088800ce0090007108880023
:100738000080fa00000006001400fa006007980024
:1007480071079800020f9800130f98007861a900ac
:100758009f40a9008f40a900f5e3a900f423ef000a
:10076800f623ef00f823ef00f623ef001e089000b1
:1007780000407800f043b2008080fb00f0032000c6
:1007880000806000c23d800001fc2f0081006100f4
:1007980001007000c03d8800113f8000f00f280064
:1007a800808060000070200001007000103f880009
:1007b8006e00900000407800f043b2008080fb009b
:1007c800f0032000008060004800dd00c23d80008a
:1007d800f10f2c008100610001007000c03d88000d
:1007e8007e00900000407800f043b2008080fb005b
:1007f800f003200000806000d23d800001fc2f0043
:100808008100610001007000d03d880002003700bf
:100818000020800050079800e01f80006100600001
:100828000000e000faff3a00fcc3a900f403a900a5
:100838000804a800f4a3a900f4e3a800f4c3a900dd
:10084800f503a800f523a900f563a900f543a8005e
:10085800e0082000000f7800e00920001007980049
:10086800a0c0b30040479800400c20003007980013
:10087800a0c0b300004f980075c0b3001e007800f8
:100888009e0090002e019000be0190004e02900044
:1008980039ff0700f5e3a8000080fa000000060011
:1008a8000600fa00000f78001107980042479800e8
:1008b8001e4078000080fb000000e00003003200ca
:1008c800e10f5000200032003e0037001e4090002b
:1008d8000080fb00110020000008dd000080ea0015
:1008e8008000780010338000808060004e409000c7
:1008f8000081fb001e4090000080fb000010dd001e
:1009080001007000103388001e4090000080fb003a
:10091800110020000008dd000080ea008000780057
:1009280050338000808060002e4090000081fb00e2
:100938001e4090000080fb000010dd0001007000e8
:10094800503388001f0037001e4090000080fb00d5
:10095800110020000008dd000080ea008000780017
:10096800b0338000808060004e4090000081fb0022
:100978001e4090000080fb000010dd0001007000a8
:10098800b03388001e4090000080fb00110020005a
:100998000008dd000080ea0080007800f033800065
:1009a800808060002e4090000081fb001e40900077
:1009b8000080fb000010dd0001007000f0338800ab
:1009c800000000000080fa00000006000600fa009f
:1009d800000f780011079800424798001e407800e1
:1009e8000080fb000000e00003003200e10f50002f
:1009f80011003200200037001e4090000080fb00ec
:100a0800110020000008dd000080ea008000780066
:100a180030338000808060004e4090000081fb00f1
:100a28001e4090000080fb000010dd0001007000f7
:100a380030338800100037001e4090000080fb0013
:100a4800110020000008dd000080ea008000780026
:100a5800d0338000808060004e4090000081fb0011
:100a68001e4090000080fb000010dd0001007000b7
:100a7800d0338800000000000080fa000000060063
:100a88000400fa00000f7800110798001e40780053
:100a98000080fb000000e00003003200e10f50007e
:100aa800180032002e0037001e4090000080fb0026
:100ab800110020000008dd000080ea0080007800b6
:100ac8003033800080806000323380001e40900008
:100ad8000080fb000010de006100600000f0a7004d
:100ae8000000ea000000e9004f00de001e4190000f
:100af8000281fb000200dd00010070003033880035
:100b0800170037001e4090000080fb0011002000f5
:100b18000008dd000080ea0080007800d033800003
:100b280080806000d23380001e4090000080fb006f
:100b38000010de006100600000f0a7000000ea007d
:100b48000000e9004f00de001e4190000281fb001a
:100b58000200dd0001007000d033880000000000b2
:100b68000080fa00000006001200fa000002eb0004
:100b7800530020000001eb008000eb000000eb00b8
:100b8800dbfe07000040eb00704f98000040eb00d0
:100b9800005798000040eb00105798007e489000de
:100ba8000080fb008e5090008180fb00c808dd00ab
:100bb800810070000000eb00010078009e5090005a
:100bc8008181fb008000eb00f20f200002816100b0
:100bd80003f02f0083806000810071000041eb006a
:100be8002fff07000040eb00404f98000040eb004b
:100bf800504f98000040eb00604f98000041eb0018
:100c08006e009000fe00900070ff070010c0b30057
:100c1800104f9800c0c0b300204f98000040eb0070
:100c2800304f98001e4890000080fb00ae489000ae
:100c38008180fb00c808dd00810070000000eb0027
:100c480001007800be4890008181fb008000eb0025
:100c5800f20f20000281610003f02f008380600002
:100c68008100710012c0b3000dff070010c0b3006f
:100c780060479800d0c0b300704798000040eb0070
:100c8800004f980012c0b3003e009000ce009000c4
:100c980003ff070010c0b30030479800e0c0b3005e
:100ca800404798000040eb00504798003e409000b5
:100cb8000080fb00ce4090008180fb00c808dd006a
:100cc800810070000000eb0001007800de40900019
:100cd8008181fb008000eb00f20f2000028161009f
:100ce80003f02f00838060008100710012c0b30000
:100cf800ebfe070010c0b300004f7800f0c0b3004f
:100d0800104798000040eb00204798000041eb0096
:100d18001e0078009e009000e1fe0700e30020001e
:100d2800f2002000c1002000d000200082fe070051
:100d380083e0a8000080fa00000006000000fa0026
:100d48000080fa00000006000000fa006a26ef00a2
:100d58007e26ef006226ef007626ef006626ef007b
:100d68007a26ef000080eb00c00b88000080eb00c3
:100d7800d00b88000080eb00e00b88000080eb00bf
:100d8800f00b88000080eb00000c88000080eb006e
:100d9800100c88000080eb00200c88000080eb001d
:100da800300c88000080fa00000006000000fa00fd
:100db800e5ff07006cff0700e0ff0700feff3700b4
:00000001FF
