:020000040000fa
:080000000001040000000000f3
:020000040000fa
:0400080048020000aa
:020000040000fa
:04000c0048020000a6
:020000040000fa
:0400100048020000a2
:020000040000fa
:04001400480200009e
:020000040000fa
:04001800480200009a
:020000040000fa
:04001c004802000096
:020000040000fa
:040020004802000092
:020000040000fa
:04002400480200008e
:020000040000fa
:04002800480200008a
:020000040000fa
:04002c004802000086
:020000040000fa
:040030004802000082
:020000040000fa
:0400340004020000c2
:020000040000fa
:04003800480200007a
:020000040000fa
:04003c004802000076
:020000040000fa
:040040004802000072
:020000040000fa
:04004400480200006e
:020000040000fa
:04004800480200006a
:020000040000fa
:04004c004802000066
:020000040000fa
:040050004802000062
:020000040000fa
:04005400480200005e
:020000040000fa
:04005800480200005a
:020000040000fa
:04005c004802000056
:020000040000fa
:040060004802000052
:020000040000fa
:04006400480200004e
:020000040000fa
:04006800480200004a
:020000040000fa
:04006c004802000046
:020000040000fa
:040070004802000042
:020000040000fa
:04007400480200003e
:020000040000fa
:04007800480200003a
:020000040000fa
:04007c004802000036
:020000040000fa
:040080004802000032
:020000040000fa
:04008400480200002e
:020000040000fa
:04008800480200002a
:020000040000fa
:04008c004802000026
:020000040000fa
:040090004802000022
:020000040000fa
:04009400480200001e
:020000040000fa
:04009800480200001a
:020000040000fa
:04009c004802000016
:020000040000fa
:0400a0004802000012
:020000040000fa
:0400a400480200000e
:020000040000fa
:0400a800480200000a
:020000040000fa
:0400ac004802000006
:020000040000fa
:0400b0004802000002
:020000040000fa
:0400b40048020000fe
:020000040000fa
:0400b80048020000fa
:020000040000fa
:0400bc0048020000f6
:020000040000fa
:0400c00048020000f2
:020000040000fa
:0400c40048020000ee
:020000040000fa
:0400c80048020000ea
:020000040000fa
:0400cc0048020000e6
:020000040000fa
:0400d00048020000e2
:020000040000fa
:0400d40048020000de
:020000040000fa
:0400d80048020000da
:020000040000fa
:0400dc0048020000d6
:020000040000fa
:0400e00048020000d2
:020000040000fa
:0400e40048020000ce
:020000040000fa
:0400e80048020000ca
:020000040000fa
:0400ec0048020000c6
:020000040000fa
:0400f00048020000c2
:020000040000fa
:0400f40048020000be
:020000040000fa
:0400f80048020000ba
:020000040000fa
:0400fc0048020000b6
:020000040000fa
:0401000048020000b1
:020000040000fa
:0401040048020000ad
:020000040000fa
:0401080048020000a9
:020000040000fa
:04010c0048020000a5
:020000040000fa
:0401100048020000a1
:020000040000fa
:04011400480200009d
:020000040000fa
:040118004802000099
:020000040000fa
:04011c004802000095
:020000040000fa
:040120004802000091
:020000040000fa
:04012400480200008d
:020000040000fa
:040128004802000089
:020000040000fa
:04012c004802000085
:020000040000fa
:040130004802000081
:020000040000fa
:04013400480200007d
:020000040000fa
:040138004802000079
:020000040000fa
:04013c004802000075
:020000040000fa
:040140004802000071
:020000040000fa
:04014400480200006d
:020000040000fa
:040148004802000069
:020000040000fa
:04014c004802000065
:020000040000fa
:040150004802000061
:020000040000fa
:04015400480200005d
:020000040000fa
:040158004802000059
:020000040000fa
:04015c004802000055
:020000040000fa
:040160004802000051
:020000040000fa
:04016400480200004d
:020000040000fa
:040168004802000049
:020000040000fa
:04016c004802000045
:020000040000fa
:040170004802000041
:020000040000fa
:04017400480200003d
:020000040000fa
:040178004802000039
:020000040000fa
:04017c004802000035
:020000040000fa
:040180004802000031
:020000040000fa
:04018400480200002d
:020000040000fa
:040188004802000029
:020000040000fa
:04018c004802000025
:020000040000fa
:040190004802000021
:020000040000fa
:04019400480200001d
:020000040000fa
:040198004802000019
:020000040000fa
:04019c004802000015
:020000040000fa
:0401a0004802000011
:020000040000fa
:0401a400480200000d
:020000040000fa
:0401a8004802000009
:020000040000fa
:0401ac004802000005
:020000040000fa
:0401b0004802000001
:020000040000fa
:0401b40048020000fd
:020000040000fa
:0401b80048020000f9
:020000040000fa
:0401bc0048020000f5
:020000040000fa
:0401c00048020000f1
:020000040000fa
:0401c40048020000ed
:020000040000fa
:0401c80048020000e9
:020000040000fa
:0401cc0048020000e5
:020000040000fa
:0401d00048020000e1
:020000040000fa
:0401d40048020000dd
:020000040000fa
:0401d80048020000d9
:020000040000fa
:0401dc0048020000d5
:020000040000fa
:0401e00048020000d1
:020000040000fa
:0401e40048020000cd
:020000040000fa
:0401e80048020000c9
:020000040000fa
:0401ec0048020000c5
:020000040000fa
:0401f00048020000c1
:020000040000fa
:0401f40048020000bd
:020000040000fa
:0401f80048020000b9
:020000040000fa
:0401fc0048020000b5
:020000040000fa
:100200002f8020000e7f24000e01880000000000d7
:10021000000020000000e000020032000001200089
:1002200020028800140007009b0007000000e00087
:1002300003003a0080712000010020000200370016
:100240000000200001002000810f7000010032003a
:1002500014000700000020000000e000020032004f
:1002600000000200000000000e0702000000000075
:100270000040da000000fe004440a90020002000f9
:100280000000e00003003200100020009001880010
:100290004440a800000006008a1f78008b1f7800e9
:1002a00000000600a1028800800478000000eb0036
:1002b0001f003700e284440054a0b4009905ba003e
:1002c000e284440054a0b4009906ba00e2844400d9
:1002d00054a0b4000006eb00476fde00fd07b2003b
:1002e000ae018800636ce10003003a00eaff0700fa
:1002f0000000eb000e003700606ce10008003a00df
:10030000004deb000a05e800020039003420ec0043
:100310000af0a0008b05e900f9ff3e000400370059
:100320006168e100010032000086eb000b0007006d
:1003300019c7ba001905ba000e04e00003003a001c
:100340000a00e000dbff3a0000000600fe07b200f2
:10035000ae0288008a047800f5ff37000cd0a300b5
:10036000e20f4d001c00390089027800354dba00bb
:100370000a05e800020039003420ec000af0a00071
:100380008b05e9000f003200254dba000a05e80090
:10039000020039003420ec000af0a0008b05e900cf
:1003a000080032000c00e0000600320015cdba0053
:1003b0000a05e800020039003420ec000af0a00031
:1003c0008b05e9008984e80054a0b4000b00e0002c
:1003d000e2ff3a00000006009902ba00055d7800cd
:1003e0008b05e900f7ff3200c82ade00055d7800c2
:1003f0008b05e900f3ff32000c00e000f1ff320052
:1004000019ddba00eeff37003600f800809fbe000d
:10041000829fbe00849fbe00869fbe003200f8000f
:100420003400f80010002000a00188001000200017
:10043000900188000400fa0010c0b300004f78005b
:1004400050c0b300104798000040eb0020479800d0
:100450001e0078009e009000a101070000c8bf00a8
:100460000040e80000e8b7008860a9000080fa00ba
:100470003400f9003200f9004f03be004f02be0005
:100480004f01be004f00be003600f90000400600dc
:0c0490000040da000000fe000000050043
:020000040000fa
:10049c000400fa00000f7800110798007961a90098
:1004ac009e007800a10c88009e009000910c8800a2
:1004bc009021ef000080fa00000006000c00fa000a
:1004cc00000f780011079800220798003307980056
:1004dc0044079800550798007801a9009e00780001
:1004ec00313a88009e009000413a8800ae0090009e
:1004fc00513a8800be009000613a8800ce0090000e
:10050c00813a88005e0090000040780061406000f5
:10051c000080fb00610060004a00dd00313a800081
:10052c0001a0a10001007000303a880047e7a80044
:10053c000080fa00000006000c00fa00000f7800a2
:10054c001107980022079800330798004407980079
:10055c00254f98002e489000e74f500002003600bf
:10056c0070c0b300204f98001e0078009e007800e9
:10057c0011017800ce4090008180fb001300200018
:10058c008118dd008180ea0081006100010878009b
:10059c003e009000be009000110178008e48900043
:1005ac008180fb00130020008118dd008180ea00af
:1005bc0081006100010878003e009000be009000b0
:1005cc00110178008e4890008180fb008100e900c9
:1005dc00130020008118dd008180ea008100610099
:1005ec00010878003e009000be00900011017800d8
:1005fc008e4890008180fb008180e9001300200070
:10060c008118dd008180ea0001016100ae48900094
:10061c008180fb00e18160008e4890008180fb00ae
:10062c008180e9008118dd0082807000010878006b
:10063c001e0090009e00900011017800ce409000aa
:10064c008180fb00130020008118dd008180ea000e
:10065c0001016100ce4090008180fb00130020005e
:10066c008118dd0082807000010878000080fa009b
:10067c00000006000a00fa00000f7800110798002d
:10068c002207980033079800440798009e007800d2
:10069c00010888009e00900031088800ae00900090
:1006ac0011088800be00900061088800ce00900000
:1006bc00710888000080fa00000006000a00fa00a9
:1006cc0010079800210798003207980043079800fc
:1006dc007861a9009f40a9008f40a9009940a9000a
:1006ec008940a900f5e3a900f5a3a900f423ef00c4
:1006fc00f623ef00f823ef00f623ef004e009000f6
:10070c0000407800f043b2008080fb00f003200032
:10071c0000806000c23d800001fc2f008100610060
:10072c0001007000c03d8800113f800000f82f00d0
:10073c00008060007000b300103f88001e00900025
:10074c0000407800f043b2008080fb00f0032000f2
:10075c00008060004800dd00c23d8000f10f2c00dd
:10076c008100610001007000c03d88002e009000e7
:10077c0000407800f043b2008080fb00f0032000c2
:10078c0000806000d23d800001fc2f0081006100e0
:10079c0001007000d03d880002003700002080006e
:1007ac00000f7800e01f8000610060000000e00096
:1007bc00faff3a00fcc3a900f403a9000804a8003e
:1007cc00f4a3a900f4e3a800f4c3a900f503a8005e
:1007dc00f523a900f563a900f543a800f5e3a800eb
:1007ec000080fa00000006000a00fa0010079800ca
:1007fc002107980032079800430798007881a900d8
:10080c009f60a9008f60a90011e4a90011a4a900a0
:10081c001024ef001224ef001424ef001224ef0038
:10082c003e00900000407800f043b2008080fb0056
:10083c00f003200000806000e23d800001fc2f00ee
:10084c008100610001007000e03d8800d13e800015
:10085c0000f82f0000806000a000b300d03e88009c
:10086c00d13e8000f00f28008080600000b0200096
:10087c0001007000d03e8800b13e8000f00f2800cf
:10088c008080600000c0200001007000b03e880035
:10089c000200370000208000000f7800c02080008c
:1008ac00610060000000e000faff3a0018c4a900e3
:1008bc001004a9002404a80010a4a80010c4a800c7
:1008cc001104a9001124a9001164a9001144a80065
:1008dc0011e4a8000080fa00000006000600fa00ef
:1008ec00000f780011079800424798001e407800ce
:1008fc000080fb000000e00003003200e10f50001c
:10090c0022003200420037001e4090000080fb00a5
:10091c00110020000008dd000080ea008000780053
:10092c0010338000808060004e4090000080fb00ff
:10093c00610160001e4090000080fb000010dd0093
:10094c0001007000103388001e4090000080fb00f6
:10095c00110020000008dd000080ea008000780013
:10096c0050338000808060002e4090000080fb009f
:10097c00610160001e4090000080fb000010dd0053
:10098c000100700050338800210037001e40900099
:10099c000080fb00110020000008dd000080ea0050
:1009ac0080007800b0338000808060004e40900062
:1009bc000080fb00610160001e4090000080fb0085
:1009cc000010dd0001007000b03388001e40900064
:1009dc000080fb00110020000008dd000080ea0010
:1009ec0080007800f0338000808060002e40900002
:1009fc000080fb00610160001e4090000080fb0045
:100a0c000010dd0001007000f033880000000000d1
:100a1c000080fa00000006000600fa00000f7800c3
:100a2c0011079800424798001e4078000080fb0098
:100a3c000000e00003003200e10f50001200320011
:100a4c00220037001e4090000080fb0011002000a7
:100a5c000008dd000080ea00800078003033800060
:100a6c00808060004e4090000080fb0061016000bf
:100a7c001e4090000080fb000010dd0001007000a3
:100a8c0030338800110037001e4090000080fb00be
:100a9c00110020000008dd000080ea0080007800d2
:100aac00d0338000808060004e4090000080fb00be
:100abc00610160001e4090000080fb000010dd0012
:100acc0001007000d0338800000000000080fa00a4
:100adc00000006000400fa00000f780011079800cf
:100aec001e4078000080fb000000e0000300320094
:100afc00e10f5000180032002e0037001e4090000d
:100b0c000080fb00110020000008dd000080ea00de
:100b1c0080007800303380008080600032338000a9
:100b2c001e4090000080fb000010de0061006000a1
:100b3c0000f0a7000000ea000000e9004f00de0012
:100b4c001e4190000281fb000200dd0001007000dc
:100b5c0030338800170037001e4090000080fb00e7
:100b6c00110020000008dd000080ea008000780001
:100b7c00d033800080806000d23380001e40900013
:100b8c000080fb000010de006100600000f0a70098
:100b9c000000ea000000e9004f00de001e4190005a
:100bac000281fb000200dd0001007000d0338800e0
:100bbc00000000000080fa00000006001600fa0099
:100bcc0010c0b3003057980050c0b3004057980085
:100bdc000040eb00505798003e5090000080fb0006
:100bec00ce5090008180fb00c808dd0081007000b1
:100bfc000000eb0001007800de5090008181fb00ca
:100c0c008000eb00f20f20000281610003f02f0046
:100c1c0083806000810071000041eb002fff070012
:100c2c0010c0b3000057980050c0b3001057980084
:100c3c000040eb002057980012c0b3000e08900043
:100c4c009e08900074ff070010c0b300504f98002e
:100c5c0080c0b300604f98000040eb00704f9800cc
:100c6c005e4890000080fb00ee4890008180fb0005
:100c7c00c808dd00810070000000eb000100780066
:100c8c00fe4890008181fb008000eb00f20f2000f9
:100c9c000281610003f02f008380600081007100ed
:100cac000041eb000dff070010c0b300204f98006f
:100cbc0080c0b300304f98000040eb00404f9800cc
:100ccc0012c0b3005e009000ee00900052ff0700cf
:100cdc000002eb00530020000001eb008000eb0051
:100cec000000eb0063fe0700b16120000003280048
:100cfc00e7fd070080082000000f78008009200025
:100d0c001007980030c0b30040479800800a2000bc
:100d1c0030079800e0c0b300004f980075c0b300d6
:100d2c001e0078009e0090002e019000be019000e5
:100d3c004e02900000fe070083e0a80010a1a8005e
:100d4c000080fa00000006000400fa008008800011
:100d5c00700060000000e0000a00320010c0b30018
:100d6c00004f780080c0b300104798000040eb00a3
:100d7c00204798000041eb001e0078009e00900078
:100d8c0025ff070000c8bf00e54f500001003a00e6
:100d9c00ffff37000060fe000140fe000080fa00fb
:100dac00000006000000fa006a26ef007e26ef0025
:100dbc000080eb00103388000080eb00b03388001b
:100dcc006626ef007a26ef000080eb00c00b88004f
:100ddc000080eb00d00b88000080eb00e00b88005b
:100dec000080eb00f00b88000080eb00000c88000a
:100dfc000080eb00100c88000080eb00200c8800b9
:100e0c000080eb00300c88000080fa000000060027
:100e1c000000fa00e3ff070068ff0700caff0700a5
:040e2c00feff37008e
:020000040000fa
:100e30000008000002000000800000000000000028
:020000040000fa
:020000040005f5
:045e40008c9fff0034
:00000001FF
