:020000040000fa
:080000000001040000000000f3
:020000040000fa
:0400080004020000ee
:020000040000fa
:04000c0004020000ea
:020000040000fa
:0400100004020000e6
:020000040000fa
:0400140004020000e2
:020000040000fa
:0400180004020000de
:020000040000fa
:04001c0004020000da
:020000040000fa
:0400200004020000d6
:020000040000fa
:0400240004020000d2
:020000040000fa
:0400280004020000ce
:020000040000fa
:04002c0004020000ca
:020000040000fa
:0400300004020000c6
:020000040000fa
:0400340004020000c2
:020000040000fa
:0400380004020000be
:020000040000fa
:04003c0004020000ba
:020000040000fa
:0400400004020000b6
:020000040000fa
:0400440004020000b2
:020000040000fa
:0400480004020000ae
:020000040000fa
:04004c0004020000aa
:020000040000fa
:0400500004020000a6
:020000040000fa
:0400540004020000a2
:020000040000fa
:04005800040200009e
:020000040000fa
:04005c00040200009a
:020000040000fa
:040060000402000096
:020000040000fa
:040064000402000092
:020000040000fa
:04006800040200008e
:020000040000fa
:04006c00040200008a
:020000040000fa
:040070000402000086
:020000040000fa
:040074000402000082
:020000040000fa
:04007800040200007e
:020000040000fa
:04007c00040200007a
:020000040000fa
:040080000402000076
:020000040000fa
:040084000402000072
:020000040000fa
:04008800040200006e
:020000040000fa
:04008c00040200006a
:020000040000fa
:040090000402000066
:020000040000fa
:040094000402000062
:020000040000fa
:04009800040200005e
:020000040000fa
:04009c00040200005a
:020000040000fa
:0400a0000402000056
:020000040000fa
:0400a4000402000052
:020000040000fa
:0400a800040200004e
:020000040000fa
:0400ac00040200004a
:020000040000fa
:0400b0000402000046
:020000040000fa
:0400b4000402000042
:020000040000fa
:0400b800040200003e
:020000040000fa
:0400bc00040200003a
:020000040000fa
:0400c0000402000036
:020000040000fa
:0400c4000402000032
:020000040000fa
:0400c800040200002e
:020000040000fa
:0400cc00040200002a
:020000040000fa
:0400d0000402000026
:020000040000fa
:0400d4000402000022
:020000040000fa
:0400d800040200001e
:020000040000fa
:0400dc00040200001a
:020000040000fa
:0400e0000402000016
:020000040000fa
:0400e4000402000012
:020000040000fa
:0400e800040200000e
:020000040000fa
:0400ec00040200000a
:020000040000fa
:0400f0000402000006
:020000040000fa
:0400f4000402000002
:020000040000fa
:0400f80004020000fe
:020000040000fa
:0400fc0004020000fa
:020000040000fa
:0401000004020000f5
:020000040000fa
:0401040004020000f1
:020000040000fa
:0401080004020000ed
:020000040000fa
:04010c0004020000e9
:020000040000fa
:0401100004020000e5
:020000040000fa
:0401140004020000e1
:020000040000fa
:0401180004020000dd
:020000040000fa
:04011c0004020000d9
:020000040000fa
:0401200004020000d5
:020000040000fa
:0401240004020000d1
:020000040000fa
:0401280004020000cd
:020000040000fa
:04012c0004020000c9
:020000040000fa
:0401300004020000c5
:020000040000fa
:0401340004020000c1
:020000040000fa
:0401380004020000bd
:020000040000fa
:04013c0004020000b9
:020000040000fa
:0401400004020000b5
:020000040000fa
:0401440004020000b1
:020000040000fa
:0401480004020000ad
:020000040000fa
:04014c0004020000a9
:020000040000fa
:0401500004020000a5
:020000040000fa
:0401540004020000a1
:020000040000fa
:04015800040200009d
:020000040000fa
:04015c000402000099
:020000040000fa
:040160000402000095
:020000040000fa
:040164000402000091
:020000040000fa
:04016800040200008d
:020000040000fa
:04016c000402000089
:020000040000fa
:040170000402000085
:020000040000fa
:040174000402000081
:020000040000fa
:04017800040200007d
:020000040000fa
:04017c000402000079
:020000040000fa
:040180000402000075
:020000040000fa
:040184000402000071
:020000040000fa
:04018800040200006d
:020000040000fa
:04018c000402000069
:020000040000fa
:040190000402000065
:020000040000fa
:040194000402000061
:020000040000fa
:04019800040200005d
:020000040000fa
:04019c000402000059
:020000040000fa
:0401a0000402000055
:020000040000fa
:0401a4000402000051
:020000040000fa
:0401a800040200004d
:020000040000fa
:0401ac000402000049
:020000040000fa
:0401b0000402000045
:020000040000fa
:0401b4000402000041
:020000040000fa
:0401b800040200003d
:020000040000fa
:0401bc000402000039
:020000040000fa
:0401c0000402000035
:020000040000fa
:0401c4000402000031
:020000040000fa
:0401c800040200002d
:020000040000fa
:0401cc000402000029
:020000040000fa
:0401d0000402000025
:020000040000fa
:0401d4000402000021
:020000040000fa
:0401d800040200001d
:020000040000fa
:0401dc000402000019
:020000040000fa
:0401e0000402000015
:020000040000fa
:0401e4000402000011
:020000040000fa
:0401e800040200000d
:020000040000fa
:0401ec000402000009
:020000040000fa
:0401f0000402000005
:020000040000fa
:0401f4000402000001
:020000040000fa
:0401f80004020000fd
:020000040000fa
:0401fc0004020000f9
:020000040000fa
:100200000f8020000e7f24000e01880000000000f7
:10021000000020000000e000020032000001200089
:100220002002880014000700790007000000e000a9
:1002300003003a0000002000010020000200370007
:100240000000200001002000810f7000010032003a
:1002500014000700000020000000e000020032004f
:1002600000000200000000007a050200000000000b
:100270000040da000000fe004440a90020002000f9
:100280000000e00003003200100020009001880010
:100290004440a800000006008a1f78008b1f7800e9
:1002a00000000600a1028800800478000000eb0036
:1002b0001f003700e284440054a0b4009905ba003e
:1002c000e284440054a0b4009906ba00e2844400d9
:1002d00054a0b4000006eb00476fde00fd07b2003b
:1002e000ae018800636ce10003003a00eaff0700fa
:1002f0000000eb000e003700606ce10008003a00df
:10030000004deb000a05e800020039003420ec0043
:100310000af0a0008b05e900f9ff3e000400370059
:100320006168e100010032000086eb000b0007006d
:1003300019c7ba001905ba000e04e00003003a001c
:100340000a00e000dbff3a0000000600fe07b200f2
:10035000ae0288008a047800f5ff37000cd0a300b5
:10036000e20f4d001c00390089027800354dba00bb
:100370000a05e800020039003420ec000af0a00071
:100380008b05e9000f003200254dba000a05e80090
:10039000020039003420ec000af0a0008b05e900cf
:1003a000080032000c00e0000600320015cdba0053
:1003b0000a05e800020039003420ec000af0a00031
:1003c0008b05e9008984e80054a0b4000b00e0002c
:1003d000e2ff3a00000006009902ba00055d7800cd
:1003e0008b05e900f7ff3200c82ade00055d7800c2
:1003f0008b05e900f3ff32000c00e000f1ff320052
:1004000019ddba00eeff37000040da000000fe0000
:0404100000000500e3
:020000040000fa
:100414000600fa00000f7800110798004247980080
:100424001e4078000080fb000000e0000300320062
:10043400e10f5000200032003e0037001e409000c3
:100444000080fb00110020000008dd000080ea00ad
:100454008000780010338000808060004e4090005f
:100464000081fb001e4090000080fb000010dd00b6
:1004740001007000103388001e4090000080fb00d3
:10048400110020000008dd000080ea0080007800f0
:1004940050338000808060002e4090000081fb007b
:1004a4001e4090000080fb000010dd000100700081
:1004b400503388001f0037001e4090000080fb006e
:1004c400110020000008dd000080ea0080007800b0
:1004d400b0338000808060004e4090000081fb00bb
:1004e4001e4090000080fb000010dd000100700041
:1004f400b03388001e4090000080fb0011002000f3
:100504000008dd000080ea0080007800f0338000fd
:10051400808060002e4090000081fb001e4090000f
:100524000080fb000010dd0001007000f033880043
:10053400000000000080fa00000006000600fa0037
:10054400000f780011079800424798001e40780079
:100554000080fb000000e00003003200e10f5000c7
:1005640011003200200037001e4090000080fb0084
:10057400110020000008dd000080ea0080007800ff
:1005840030338000808060004e4090000081fb008a
:100594001e4090000080fb000010dd000100700090
:1005a40030338800100037001e4090000080fb00ac
:1005b400110020000008dd000080ea0080007800bf
:1005c400d0338000808060004e4090000081fb00aa
:1005d4001e4090000080fb000010dd000100700050
:1005e400d0338800000000000080fa0000000600fc
:1005f4000400fa00000f7800110798001e407800ec
:100604000080fb000000e00003003200e10f500016
:10061400180032002e0037001e4090000080fb00be
:10062400110020000008dd000080ea00800078004e
:100634003033800080806000323380001e409000a0
:100644000080fb000010de006100600000f0a700e5
:100654000000ea000000e9004f00de001e419000a7
:100664000281fb000200dd000100700030338800cd
:10067400170037001e4090000080fb00110020008e
:100684000008dd000080ea0080007800d03380009c
:1006940080806000d23380001e4090000080fb0008
:1006a4000010de006100600000f0a7000000ea0016
:1006b4000000e9004f00de001e4190000281fb00b3
:1006c4000200dd0001007000d0338800000000004b
:1006d4000080fa00000006000800fa0000f0200084
:1006e400000f78001e00780000f0a000000f7800d2
:1006f400af0007001e0078009c0007001007980058
:10070400b80007009e00900030032000808f500046
:100714000c003a0010c0b3004047980050c0b3002a
:10072400504798000040eb006047980012c0b300a7
:100734002e009000be00900080ff07000040eb00f8
:100744000100370010c0b3000080fa00000006006a
:100754000200fa0000e92100000f7800940007006d
:100764001e007800810007009e000700700422002c
:10077400000f78008e0007001e0078007b00070041
:100784009800070000302200000f7800880007005e
:100794001e00780075000700920007000080fa0030
:1007a400000006000800fa003007980000802200cc
:1007b400000f78001e00780000f0a00010079800d9
:1007c4007b0007001e009000680007004047980067
:1007d4001e0090000010b000100798001e0090004a
:1007e40062000700504798005e4090000000fb0044
:1007f400c800dd004e4090000000fb008100700046
:100804003e009000010878001e0090000010b00027
:10081400100798001e0090005400070040479800fd
:100824001e0090000010b000100798001e009000f9
:100834004e000700504798005e4090000000fb0007
:10084400c800dd004e4090000000fb0081007000f5
:100854003e009000110098001e0090000010b000af
:10086400100798001e0090004000070040479800c1
:100874001e0090000010b000100798001e009000a9
:100884003a00070050479800560007005e40900069
:100894000000fb00c800dd004e4090000000fb009b
:1008a400810070003e009000210098000080fa0052
:1008b400000006000000fa007881a90013e4a900f2
:1008c40011a4a9001184a9001164a9001144a8006d
:1008d4001124a9001104a90010c4a80010a4a800a0
:1008e4001084a9001064a9001024a8001004a90011
:1008f400a120800000fe2f0000806000f000b30003
:10090400a020880070002000002188004200070019
:100914000080fa00000006000000fa0011e4a800bc
:100924000080fa00000006000000fa0011e4a900ab
:100934000080fa00000006000200fa00000f7800b0
:100944001e00780010007800e02088000080fa0083
:10095400000006000400fa0010079800e020800060
:10096400000f78000080fa00000006000200fa0080
:10097400000f780000000000c020800062006000ca
:100984000000e000fcff3a009e007800e1208800af
:1009940000000000c0208000610060000000e00052
:1009a400fcff3200e02080000080fa000000060016
:1009b4000400fa0010c0b300004f780030c0b30048
:1009c400104798000040eb00204798000041eb00de
:1009d4001e0078009e009000d8fe07000080fa00f8
:1009e400000006000400fa0010c0b300004f7800b5
:1009f40030c0b300104798000040eb002047980037
:100a040012c0b3001e0078009e009000cbfe0700c9
:100a14000080fa00000006000000fa00d13e8000c9
:100a240000f82f0000806000a000b300d03e8800d2
:100a3400d13e8000f00f28008080600000b02000cc
:100a440001007000d03e8800e13d800000fc2f00d2
:100a5400008060000010a000e03d88000080fa00e3
:100a6400000006000400fa006a26ef007e26ef006c
:100a74006226ef007626ef006626ef007a26ef0066
:100a84000080eb00c00b88000080eb00d00b8800d6
:100a94000080eb00e00b88000080eb00f00b880086
:100aa4000080eb00000c88000080eb00100c880034
:100ab4000080eb00200c88000080eb00300c8800e4
:100ac40010c0b300004f780030c0b3001047980046
:100ad4000040eb00204798000041eb001e00780026
:100ae4009e0090004afe07000080fa000000060005
:100af4000a00fa00dbff07003100070010c0b30052
:100b04001047980050c0b300204798000040eb0005
:100b1400304798001e4090000080fb00ae409000db
:100b24008180fb00c808dd00810070000000eb003c
:100b340001007800be4090008181fb008000eb0042
:100b4400f20f20000281610003f02f008380600017
:100b5400810071000041eb002dfe070055ff0700e6
:100b64006dff0700dcfe0700004f7800f8fe070069
:100b7400640047000bff070000352c000100200033
:080b840001000700faff370031
:020000040000fa
:100b8c00f03fb1000180b10006003500ee03090012
:100b9c0000000000403fb1000180b100fbff3d00b0
:100bac001000b000203fb0000200350000800900aa
:080bbc0000000000000006002b
:020000040000fa
:100bc4000000fa000080fa00000006000000fa00ad
:080bd4000080fa000000060099
:00000001FF
