:020000040000fa
:080000000001040000000000f3
:020000040000fa
:04000800560200009c
:020000040000fa
:04000c005602000098
:020000040000fa
:040010005602000094
:020000040000fa
:040014005602000090
:020000040000fa
:04001800560200008c
:020000040000fa
:04001c005602000088
:020000040000fa
:040020005602000084
:020000040000fa
:040024005602000080
:020000040000fa
:04002800560200007c
:020000040000fa
:04002c005602000078
:020000040000fa
:040030005602000074
:020000040000fa
:040034005602000070
:020000040000fa
:04003800560200006c
:020000040000fa
:04003c005602000068
:020000040000fa
:040040005602000064
:020000040000fa
:040044005602000060
:020000040000fa
:04004800560200005c
:020000040000fa
:04004c005602000058
:020000040000fa
:040050005602000054
:020000040000fa
:040054005602000050
:020000040000fa
:04005800560200004c
:020000040000fa
:04005c005602000048
:020000040000fa
:040060005602000044
:020000040000fa
:040064005602000040
:020000040000fa
:04006800560200003c
:020000040000fa
:04006c005602000038
:020000040000fa
:040070005602000034
:020000040000fa
:040074005602000030
:020000040000fa
:04007800560200002c
:020000040000fa
:04007c005602000028
:020000040000fa
:040080005602000024
:020000040000fa
:040084005602000020
:020000040000fa
:04008800560200001c
:020000040000fa
:04008c005602000018
:020000040000fa
:040090005602000014
:020000040000fa
:040094005602000010
:020000040000fa
:04009800560200000c
:020000040000fa
:04009c005602000008
:020000040000fa
:0400a0005602000004
:020000040000fa
:0400a4005602000000
:020000040000fa
:0400a80056020000fc
:020000040000fa
:0400ac0056020000f8
:020000040000fa
:0400b00056020000f4
:020000040000fa
:0400b40056020000f0
:020000040000fa
:0400b80056020000ec
:020000040000fa
:0400bc0056020000e8
:020000040000fa
:0400c00056020000e4
:020000040000fa
:0400c40056020000e0
:020000040000fa
:0400c80056020000dc
:020000040000fa
:0400cc0056020000d8
:020000040000fa
:0400d00056020000d4
:020000040000fa
:0400d40056020000d0
:020000040000fa
:0400d80056020000cc
:020000040000fa
:0400dc0056020000c8
:020000040000fa
:0400e00056020000c4
:020000040000fa
:0400e40056020000c0
:020000040000fa
:0400e80056020000bc
:020000040000fa
:0400ec0056020000b8
:020000040000fa
:0400f00056020000b4
:020000040000fa
:0400f40056020000b0
:020000040000fa
:0400f80056020000ac
:020000040000fa
:0400fc0056020000a8
:020000040000fa
:0401000056020000a3
:020000040000fa
:04010400560200009f
:020000040000fa
:04010800560200009b
:020000040000fa
:04010c005602000097
:020000040000fa
:0401100004020000e5
:020000040000fa
:04011400560200008f
:020000040000fa
:04011800560200008b
:020000040000fa
:04011c005602000087
:020000040000fa
:040120005602000083
:020000040000fa
:04012400560200007f
:020000040000fa
:04012800560200007b
:020000040000fa
:04012c005602000077
:020000040000fa
:040130005602000073
:020000040000fa
:04013400560200006f
:020000040000fa
:04013800560200006b
:020000040000fa
:04013c005602000067
:020000040000fa
:040140005602000063
:020000040000fa
:04014400560200005f
:020000040000fa
:04014800560200005b
:020000040000fa
:04014c005602000057
:020000040000fa
:040150005602000053
:020000040000fa
:04015400560200004f
:020000040000fa
:04015800560200004b
:020000040000fa
:04015c005602000047
:020000040000fa
:040160005602000043
:020000040000fa
:04016400560200003f
:020000040000fa
:04016800560200003b
:020000040000fa
:04016c005602000037
:020000040000fa
:040170005602000033
:020000040000fa
:04017400560200002f
:020000040000fa
:04017800560200002b
:020000040000fa
:04017c005602000027
:020000040000fa
:040180005602000023
:020000040000fa
:04018400560200001f
:020000040000fa
:04018800560200001b
:020000040000fa
:04018c005602000017
:020000040000fa
:040190005602000013
:020000040000fa
:04019400560200000f
:020000040000fa
:04019800560200000b
:020000040000fa
:04019c005602000007
:020000040000fa
:0401a0005602000003
:020000040000fa
:0401a40056020000ff
:020000040000fa
:0401a80056020000fb
:020000040000fa
:0401ac0056020000f7
:020000040000fa
:0401b00056020000f3
:020000040000fa
:0401b40056020000ef
:020000040000fa
:0401b80056020000eb
:020000040000fa
:0401bc0056020000e7
:020000040000fa
:0401c00056020000e3
:020000040000fa
:0401c40056020000df
:020000040000fa
:0401c80056020000db
:020000040000fa
:0401cc0056020000d7
:020000040000fa
:0401d00056020000d3
:020000040000fa
:0401d40056020000cf
:020000040000fa
:0401d80056020000cb
:020000040000fa
:0401dc0056020000c7
:020000040000fa
:0401e00056020000c3
:020000040000fa
:0401e40056020000bf
:020000040000fa
:0401e80056020000bb
:020000040000fa
:0401ec0056020000b7
:020000040000fa
:0401f00056020000b3
:020000040000fa
:0401f40056020000af
:020000040000fa
:0401f80056020000ab
:020000040000fa
:0401fc0056020000a7
:020000040000fa
:100200000f8020000e7f24000e01880000000000f7
:10021000000020000000e000020032000001200089
:100220002002880014000700a20007000000e00080
:1002300003003a0000002000010020000200370007
:100240000000200001002000810f7000010032003a
:1002500014000700000020000000e000020032004f
:100260000000020000000000660402000000000020
:100270000040da000000fe004440a90020002000f9
:100280000000e00003003200100020009001880010
:100290004440a800000006008a1f78008b1f7800e9
:1002a00000000600a1028800800478000000eb0036
:1002b0001f003700e284440054a0b4009905ba003e
:1002c000e284440054a0b4009906ba00e2844400d9
:1002d00054a0b4000006eb00476fde00fd07b2003b
:1002e000ae018800636ce10003003a00eaff0700fa
:1002f0000000eb000e003700606ce10008003a00df
:10030000004deb000a05e800020039003420ec0043
:100310000af0a0008b05e900f9ff3e000400370059
:100320006168e100010032000086eb000b0007006d
:1003300019c7ba001905ba000e04e00003003a001c
:100340000a00e000dbff3a0000000600fe07b200f2
:10035000ae0288008a047800f5ff37000cd0a300b5
:10036000e20f4d001c00390089027800354dba00bb
:100370000a05e800020039003420ec000af0a00071
:100380008b05e9000f003200254dba000a05e80090
:10039000020039003420ec000af0a0008b05e900cf
:1003a000080032000c00e0000600320015cdba0053
:1003b0000a05e800020039003420ec000af0a00031
:1003c0008b05e9008984e80054a0b4000b00e0002c
:1003d000e2ff3a00000006009902ba00055d7800cd
:1003e0008b05e900f7ff3200c82ade00055d7800c2
:1003f0008b05e900f3ff32000c00e000f1ff320052
:1004000019ddba00eeff37003600f800809fbe000d
:10041000829fbe00849fbe00869fbe000600fa0039
:1004200001208000010f7800500520009e00780018
:10043000808f50000b003a00a00a200000208800a6
:100440000040eb00204798000040eb003047980048
:100450000040eb00404798001e009000ae00900066
:100460008d0007008f40a900e11f800000042000dc
:10047000008060000000e0000500320000208000e5
:1004800000407800504798005e409000fcc3a900ef
:100490000080fa004f03be004f02be004f01be00b5
:1004a0004f00be003600f900004006000040da00b0
:0804b0000000fe000000050041
:020000040000fa
:1004b8000600fa00000f78001107980042479800dc
:1004c8001e4078000080fb000000e00003003200be
:1004d800e10f5000200032003e0037001e4090001f
:1004e8000080fb00110020000008dd000080ea0009
:1004f8008000780010338000808060004e409000bb
:100508000081fb001e4090000080fb000010dd0011
:1005180001007000103388001e4090000080fb002e
:10052800110020000008dd000080ea00800078004b
:1005380050338000808060002e4090000081fb00d6
:100548001e4090000080fb000010dd0001007000dc
:10055800503388001f0037001e4090000080fb00c9
:10056800110020000008dd000080ea00800078000b
:10057800b0338000808060004e4090000081fb0016
:100588001e4090000080fb000010dd00010070009c
:10059800b03388001e4090000080fb00110020004e
:1005a8000008dd000080ea0080007800f033800059
:1005b800808060002e4090000081fb001e4090006b
:1005c8000080fb000010dd0001007000f03388009f
:1005d800000000000080fa00000006000600fa0093
:1005e800000f780011079800424798001e407800d5
:1005f8000080fb000000e00003003200e10f500023
:1006080011003200200037001e4090000080fb00df
:10061800110020000008dd000080ea00800078005a
:1006280030338000808060004e4090000081fb00e5
:100638001e4090000080fb000010dd0001007000eb
:1006480030338800100037001e4090000080fb0007
:10065800110020000008dd000080ea00800078001a
:10066800d0338000808060004e4090000081fb0005
:100678001e4090000080fb000010dd0001007000ab
:10068800d0338800000000000080fa000000060057
:100698000400fa00000f7800110798001e40780047
:1006a8000080fb000000e00003003200e10f500072
:1006b800180032002e0037001e4090000080fb001a
:1006c800110020000008dd000080ea0080007800aa
:1006d8003033800080806000323380001e409000fc
:1006e8000080fb000010de006100600000f0a70041
:1006f8000000ea000000e9004f00de001e41900003
:100708000281fb000200dd00010070003033880028
:10071800170037001e4090000080fb0011002000e9
:100728000008dd000080ea0080007800d0338000f7
:1007380080806000d23380001e4090000080fb0063
:100748000010de006100600000f0a7000000ea0071
:100758000000e9004f00de001e4190000281fb000e
:100768000200dd0001007000d033880000000000a6
:100778000080fa00000006000200fa007f86a90047
:100788007fa6a9007fc6a9007fe6a9007786a800f2
:1007980077a6a80077c6a80077e6a9000108800018
:1007a800f00b20000081600060042000710520002b
:1007b8000310200080497800814978008249780038
:1007c800c13d800000fc2f0000806000e000b30005
:1007d800c03d8800113f8000f00f28008080600035
:1007e8000070200001007000103f8800c13d8000ab
:1007f800f00f2c008080600000d020000100700005
:10080800c03d8800d13d800000fc2f0000806000c2
:10081800c000b300d03d88000008800000017800c7
:100828000260a00060042000710520000310200071
:10083800804978008149780082497800f5e3a90069
:10084800f423ef00f623ef00f823ef00f623ef0080
:100858000200370000208000000f7800e01f8000b1
:10086800610060000000e000faff3a00fcc3a90044
:100878000804a8008f40a90021068000f08f2f00ef
:100888008080600000502000010070002006880071
:100898009f40a800f4a3a900f4e3a800f4c3a900aa
:1008a800f503a800f523a900f543a800f563a900fe
:1008b800f5e3a800a00a2000002088000080fa00c4
:1008c800000006000600fa00abff07000040eb003e
:1008d800304798000040eb00404798000040eb008c
:1008e800504798003e4090000080fb00ce409000aa
:1008f8008180fb00c808dd00810070000000eb006b
:1009080001007800de4090008181fb008000eb0050
:10091800f20f20000281610003f02f008380600045
:10092800810071000041eb00e1fe07000040eb0090
:10093800004f78000040eb00104798000040eb00a3
:100948002047980012c0b3001e0078009e00900057
:0809580022ff0700ffff37003a
:00000001FF
